:020000040800F2
:1000000000280020491100088D10000893100008F6
:10001000991000089F100008A510000800000000BB
:10002000000000000000000000000000AB1000080D
:10003000B710000800000000C3100008CF1000082F
:100040009111000891110008911100089111000808
:1000500091110008911100089111000891110008F8
:1000600091110008911100089111000891110008E8
:1000700091110008911100089111000891110008D8
:1000800091110008911100089111000891110008C8
:1000900091110008911100089111000891110008B8
:1000A00091110008911100089111000891110008A8
:1000B000DD100008911100080000000091110008F7
:1000C00091110008000000000000000091110008DC
:1000D00000000000911100089111000800000000CC
:1000E0009111000891110008911100080000000012
:1000F0000000000000000000000000000000000000
:0C01000000000000000000005FF808F1A3
:10010C0010B5054C237833B9044B13B10448AFF345
:10011C0000800123237010BD10000020000000009F
:10012C00E827000808B5034B1BB103490348AFF39C
:10013C00008008BD0000000014000020E827000823
:10014C0080B582B000AF78607B68022B15D07B68DD
:10015C00022B18DC7B68002B03D07B68012B06D0AC
:10016C0011E001210A4801F0F9FA03460CE00221E2
:10017C00074801F0F3FA034606E00421044801F0B5
:10018C00EDFA034600E0012318460837BD4680BD52
:10019C000008014080B483B000AF7860154A7B68DA
:1001AC00012142F82310144A7B6852F82330002BAB
:1001BC0005D0114A7B6852F82330642B04D10F4AC6
:1001CC007B68012142F823100B4A7B6852F82330DC
:1001DC00002B0ADD084A7B6852F82330632B04DCC1
:1001EC00064A7B68022142F8231000BF0C37BD463B
:1001FC0080BC7047380000206800002044000020BC
:10020C0080B483B000AF7860044A7B68012142F867
:10021C00231000BF0C37BD4680BC70475000002037
:10022C0080B582B000AF00237B6096E04F4A7B68BC
:10023C00134419784E4A7B6813440A461A704D4A87
:10024C007B6813441978494A7B6813440A461A7030
:10025C007868FFF775FF03461946464A7B681344D6
:10026C000A461A70424A7B6813441A783F497B68E5
:10027C000B441B789A426DD13E4A7B6813441A7822
:10028C003A497B680B441B789A4263D13A4A7B68A3
:10029C0013441A7836497B680B441B789A421DD05C
:1002AC00334A7B6813441978334A7B6813440A46F3
:1002BC001A702F4A7B6813441B78002B4AD178683C
:1002CC00FFF768FF2D4A7B684FF4967142F82310B4
:1002DC002B4A7B68642142F823103BE0294A7B6857
:1002EC0052F82330012B18D1254A7B6852F8233061
:1002FC005A1E23497B6841F82320214A7B6852F817
:10030C002330002B09DC1E4A7B68642142F8231041
:10031C001C4A7B68002142F82310184A7B6852F86B
:10032C0023305A1E15497B6841F82320134A7B68F9
:10033C0052F82330002B0DDC0D4A7B6813441B78DC
:10034C00002B02D17868FFF75BFF0C4A7B686421B5
:10035C0042F823107B6801337B607B68022B7FF7AC
:10036C0065AF00BF00BF0837BD4680BD2C00002024
:10037C003000002034000020000000205C00002031
:10038C00680000204400002080B483B000AF034616
:10039C00FB71FB79022B01D900230DE0FB79094A93
:1003AC0052F82330012B06D1FB79064A002142F882
:1003BC002310012300E0002318460C37BD4680BCF7
:1003CC00704700BF3800002080B483B000AF0346F4
:1003DC00FB71FB79022B01D9FF230DE0FB79094A54
:1003EC0052F82330012B06D1FB79064A002142F842
:1003FC002310012300E0002318460C37BD4680BCB7
:10040C00704700BF5000002080B400AF094B1B6840
:10041C00092B03DD074B00221A6006E0054B1B6815
:10042C00002B02DA034B09221A6000BFBD4680BCC8
:10043C00704700BF7800002080B500AF464B1B68AA
:10044C00012B02D01E2B0CD083E000F0FBFB434BA6
:10045C0000221A60642000F017FD3F4B1E221A6028
:10046C0077E03E4B1B68184600F02CFA00F050FE6B
:10047C000020FFF789FF0346002B0DD0374B1B687C
:10048C000133364A1360FFF7BFFF4FF47A7000F068
:10049C0023FD314B0C221A600120FFF775FF034638
:1004AC00002B0DD02D4B1B68013B2C4A1360FFF722
:1004BC00ABFF4FF47A7000F00FFD274B0D221A6042
:1004CC000220FFF761FF0346002B09D0234B0022CB
:1004DC001A604FF47A7000F0FFFC1F4B0B221A606D
:1004EC000020FFF771FF0346002B0DD01B4B1B6840
:1004FC0001331A4A1360FFF787FF4FF47A7000F04C
:10050C00EBFC154B0C221A600120FFF75DFF034634
:10051C00002B0DD0114B1B68013B104A1360FFF7E9
:10052C0073FF4FF47A7000F0D7FC0B4B0D221A605E
:10053C000220FFF749FF0346002B09D0074B00228E
:10054C001A604FF47A7000F0C7FC034B0B221A6050
:10055C0000BF00BF80BD00BF7400002078000020E9
:10056C0080B500AF874B1B680D2B00F011810D2B54
:10057C0000F38E810B2B03D00C2B00F0828087E1D3
:10058C00814B1B68184600F09DF90020FFF7FCFE1C
:10059C000346002B0DD07C4B1B6801337A4A136049
:1005AC00FFF732FF4FF47A7000F096FC754B0C227B
:1005BC001A600120FFF7E8FE0346002B0DD0724BAA
:1005CC001B68013B704A1360FFF71EFF4FF47A70F3
:1005DC0000F082FC6B4B0D221A600220FFF7D4FE58
:1005EC000346002B09D0684B00221A604FF47A7036
:1005FC0000F072FC634B0B221A600020FFF7E4FE44
:10060C000346002B0DD0604B1B6801335E4A136010
:10061C00FFF7FAFE4FF47A7000F05EFC594B0C2297
:10062C001A600120FFF7D0FE0346002B0DD0564B6D
:10063C001B68013B544A1360FFF7E6FE4FF47A70D7
:10064C0000F04AFC4F4B0D221A600220FFF7BCFE53
:10065C000346002B09D04C4B00221A604FF47A70E1
:10066C0000F03AFC474B0B221A60484B1B68012BDD
:10067C0040F01081434B1E221A60642000F004FCF1
:10068C0008E1414B1B68184600F01CF90020FFF7ED
:10069C007BFE0346002B0DD03B4B1B6801333A4AC3
:1006AC001360FFF7B1FE4FF47A7000F015FC354B78
:1006BC000C221A600120FFF767FE0346002B0DD0B9
:1006CC00314B1B68013B304A1360FFF79DFE4FF422
:1006DC007A7000F001FC2B4B0D221A600220FFF700
:1006EC0053FE0346002B09D0274B00221A604FF40F
:1006FC007A7000F0F1FB234B0B221A600020FFF7FD
:10070C0063FE0346002B0DD01F4B1B6801331E4AA2
:10071C001360FFF779FE4FF47A7000F0DDFB194B94
:10072C000C221A600120FFF74FFE0346002B0DD060
:10073C00154B1B68013B144A1360FFF765FE4FF421
:10074C007A7000F0C9FB0F4B0D221A600220FFF7E4
:10075C003BFE0346002B09D00B4B00221A604FF4D2
:10076C007A7000F0B9FB074B0B221A60074B1B6821
:10077C00012B40F09180034B1E221A60642000F084
:10078C0083FB89E074000020780000209C0000208E
:10079C00444B1B68184600F095F80020FFF7F4FD59
:1007AC000346002B0DD03F4B1B6801333D4A1360B1
:1007BC00FFF72AFE4FF47A7000F08EFB3A4B0C22B6
:1007CC001A600120FFF7E0FD0346002B0DD0354BDE
:1007DC001B68013B334A1360FFF716FE4FF47A7027
:1007EC0000F07AFB304B0D221A600220FFF7CCFD93
:1007FC000346002B09D02B4B00221A604FF47A7061
:10080C0000F06AFB284B0B221A600020FFF7DCFD7E
:10081C000346002B0DD0234B1B680133214A136078
:10082C00FFF7F2FD4FF47A7000F056FB1E4B0C22D2
:10083C001A600120FFF7C8FD0346002B0DD0194BA1
:10084C001B68013B174A1360FFF7DEFD4FF47A700B
:10085C0000F042FB144B0D221A600220FFF7B4FD8E
:10086C000346002B09D00F4B00221A604FF47A700C
:10087C0000F032FB0C4B0B221A600C4B1B68012B4B
:10088C000CD1094B1E221A60642000F0FDFA05E021
:10089C0000BF04E000BF02E000BF00E000BF00BFEB
:1008AC0080BD00BF78000020740000209C00002058
:1008BC0080B500AF2021024800F07FFF00BF80BD53
:1008CC000008014080B582B000AF78607968C64BF3
:1008DC0083FB01239A10CB17D21A13469B001344A7
:1008EC005B00CA1A092A00F2838101A353F822F093
:1008FC00250900086D090008B5090008FD09000864
:10090C00450A00088D0A0008D50A00081D0B0008CE
:10091C00650B0008AD0B000800220121B34800F064
:10092C0034FF00220221B14800F02FFF00220421E5
:10093C00AE4800F02AFF00220821AC4800F025FF49
:10094C0000221021A94800F020FF00222021A748F6
:10095C0000F01BFF01224021A44800F016FF6BE1C0
:10096C0001220121A14800F010FF002202219F4822
:10097C0000F00BFF002204219C4800F006FF01222E
:10098C0008219A4800F001FF01221021974800F03D
:10099C00FCFE01222021954800F0F7FE01224021A7
:1009AC00924800F0F2FE47E1002201218F4800F04E
:1009BC00ECFE002202218D4800F0E7FE012204210A
:1009CC008A4800F0E2FE00220821884800F0DDFE93
:1009DC0000221021854800F0D8FE012220218348F6
:1009EC0000F0D3FE00224021804800F0CEFE23E12F
:1009FC00002201217D4800F0C8FE002202217B4824
:100A0C0000F0C3FE00220421784800F0BEFE002254
:100A1C000821764800F0B9FE01221021734800F03D
:100A2C00B4FE01222021714800F0AFFE00224021CB
:100A3C006E4800F0AAFEFFE0012201216B4800F095
:100A4C00A4FE00220221694800F09FFE002204212E
:100A5C00664800F09AFE01220821644800F095FED9
:100A6C0001221021614800F090FE002220215F48F5
:100A7C0000F08BFE002240215C4800F086FEDBE09B
:100A8C0000220121594800F080FE01220221574822
:100A9C0000F07BFE00220421544800F076FE002278
:100AAC000821524800F071FE012210214F4800F03D
:100ABC006CFE002220214D4800F067FE00224021F0
:100ACC004A4800F062FEB7E000220121474800F0DE
:100ADC005CFE01220221454800F057FE0022042151
:100AEC00424800F052FE00220821404800F04DFE22
:100AFC00002210213D4800F048FE002220213B48F6
:100B0C0000F043FE00224021384800F03EFE93E006
:100B1C0000220121354800F038FE00220221334822
:100B2C0000F033FE00220421304800F02EFE01229A
:100B3C0008212E4800F029FE012210212B4800F03C
:100B4C0024FE01222021294800F01FFE0122402111
:100B5C00264800F01AFE6FE000220121234800F025
:100B6C0014FE00220221214800F00FFE0022042175
:100B7C001E4800F00AFE002208211C4800F005FE69
:100B8C0000221021194800F000FE002220211748F5
:100B9C0000F0FBFD00224021144800F0F6FD4BE074
:100BAC0000220121114800F0F0FD002202210F4823
:100BBC0000F0EBFD002204210C4800F0E6FD0022C1
:100BCC0008210A4800F0E1FD01221021074800F03D
:100BDC00DCFD00222021054800F0D7FD0022402139
:100BEC00024800F0D2FD27E067666666000C014003
:100BFC0001220121124800F0C8FD012202211048F7
:100C0C0000F0C3FD012204210D4800F0BEFD0122BD
:100C1C0008210B4800F0B9FD01221021084800F012
:100C2C00B4FD01222021064800F0AFFD0122402135
:100C3C00034800F0AAFD00BF00BF0837BD4680BDC9
:100C4C00000C014080B500AF0A20FFF73BFE00BF4F
:100C5C0080BD000080B500AF00F096FA00F018F8E7
:100C6C0000F09EF800F050F8074801F0F7F9074B38
:100C7C0001221A60642000F01BF900F039FAFFF72A
:100C8C00DBFBFFF76DFCF8E7A400002074000020EC
:100C9C0080B590B000AF07F1180328220021184648
:100CAC0001F094FD3B1D00221A605A609A60DA60D4
:100CBC001A610223BB610123BB621023FB62002378
:100CCC007B6307F11803184600F090FD0346002BD8
:100CDC0001D000F0D3F80F237B600023BB6000230E
:100CEC00FB6000233B6100237B613B1D0021184608
:100CFC0000F0FCFF0346002B01D000F0BFF800BF52
:100D0C004037BD4680BD000080B586B000AF07F10E
:100D1C00080300221A605A609A60DA603B4600228F
:100D2C001A605A601D4B4FF080421A601B4B41F603
:100D3C003F725A60194B00229A60184B0922DA60F4
:100D4C00164B00221A61154B00229A61134801F0D0
:100D5C0035F90346002B01D000F090F84FF4805386
:100D6C00BB6007F1080319460C4801F0CBFA0346A7
:100D7C00002B01D000F082F800233B6000237B6045
:100D8C003B461946054801F093FC0346002B01D065
:100D9C0000F074F800BF1837BD4680BDA4000020D9
:100DAC0080B586B000AF07F1080300221A605A60C4
:100DBC009A60DA60284B9B69274A43F004039361DD
:100DCC00254B9B6903F004037B607B68224B9B697A
:100DDC00214A43F0080393611F4B9B6903F00803FE
:100DEC003B603B6800224FF6F0711C4800F0CDFCD4
:100DFC0000224FF6FF711A4800F0C7FC0F23BB60AE
:100E0C000023FB6001233B6107F1080319461348DB
:100E1C0000F02AFB4FF6F073BB600123FB6000234C
:100E2C003B6102237B6107F1080319460B4800F074
:100E3C001BFB4FF6FF73BB600123FB6000233B6180
:100E4C0002237B6107F108031946054800F00CFBEF
:100E5C0000BF1837BD4680BD00100240000801409D
:100E6C00000C014080B582B000AF7860FFF7D8F974
:100E7C0000F046F800BF0837BD4680BD80B400AF17
:100E8C0072B600BFFEE7000080B483B000AF78609C
:100E9C00054A7B681360054B00221A6000BF0C37B3
:100EAC00BD4680BC704700BF800000207C00002045
:100EBC0080B483B000AF7860054A7B681360054B43
:100ECC0000221A6000BF0C37BD4680BC704700BFC3
:100EDC00900000208C00002080B483B000AF7860BC
:100EEC00054A7B681360054B00221A6000BF0C3763
:100EFC00BD4680BC704700BFA00000209C000020B5
:100F0C0080B400AF294B1B68002B0BDD274B1B68F3
:100F1C00013B264A1360254B1B68002B02DC244B3B
:100F2C0001221A60234B1B68002B0BDD214B1B6825
:100F3C00013B204A13601F4B1B68002B02DC1E4B2D
:100F4C0001221A601D4B1B68002B0BDD1B4B1B6811
:100F5C00013B1A4A1360194B1B68002B02DC184B1F
:100F6C0001221A60174B1B68002B0BDD154B1B68FD
:100F7C00013B144A1360134B1B68002B02DC124B11
:100F8C0001221A60114B1B68002B0BDD0F4B1B68E9
:100F9C00013B0E4A13600D4B1B68002B02DC0C4B03
:100FAC0001221A6000BFBD4680BC70478000002043
:100FBC007C0000208800002084000020900000208D
:100FCC008C0000209800002094000020A00000203D
:100FDC009C00002080B485B000AF154B9B69144A6F
:100FEC0043F001039361124B9B6903F00103BB6057
:100FFC00BB680F4BDB690E4A43F08053D3610C4B3B
:10100C00DB6903F080537B607B680A4B5B68FB6099
:10101C00FB6823F0E063FB60FB6843F08063FB60DC
:10102C00044AFB68536000BF1437BD4680BC704750
:10103C00001002400000014080B584B000AF786021
:10104C007B681B68B3F1804F13D10C4BDB690B4AE7
:10105C0043F00103D361094BDB6903F00103FB602F
:10106C00FB68002200211C2000F0C7F91C2000F0B6
:10107C00E0F900BF1037BD4680BD00BF0010024034
:10108C0080B400AFFEE780B400AFFEE780B400AFE1
:10109C00FEE780B400AFFEE780B400AFFEE780B49B
:1010AC0000AF00BFBD4680BC704780B400AF00BF2E
:1010BC00BD4680BC704780B400AF00BFBD4680BC4D
:1010CC00704780B500AF00F0A5F800BF80BD0000F0
:1010DC0080B500AF024801F00DF800BF80BD00BF25
:1010EC00A400002080B400AF00BFBD4680BC704798
:1010FC0080B500AF054B1B68012B04D16420FFF7B2
:10110C00D7FEFFF7D5FB00BF80BD00BF8C000020D1
:10111C0080B500AF074B1B68012B09D16420FFF78A
:10112C00B3FE054B1B68013B034A1360FFF76CF9D8
:10113C0000BF80BD7C000020780000200C480D49C9
:10114C000D4A002302E0D458C4500433C4188C4216
:10115C00F9D30A4A0A4C002301E013600432A2427C
:10116C00FBD3FFF7BFFF01F00DFBFFF773FD7047DB
:10117C00000000201000002028280008100000208B
:10118C00F0000020FEE7000080B500AF084B1B68A4
:10119C00074A43F010031360032000F023F90F20DB
:1011AC0000F008F8FFF716FF0023184680BD00BFBB
:1011BC000020024080B582B000AF7860124B1A68F4
:1011CC00124B1B7819464FF47A73B3FBF1F3B2FB55
:1011DC00F3F3184600F03BF90346002B01D0012332
:1011EC000EE07B680F2B0AD8002279684FF0FF3095
:1011FC0000F003F9064A7B681360002300E001232A
:10120C0018460837BD4680BD040000200C000020A5
:10121C000800002080B400AF054B1B781A46054B24
:10122C001B681344034A136000BFBD4680BC704763
:10123C000C000020EC00002080B400AF024B1B68B7
:10124C001846BD4680BC7047EC00002080B485B0C9
:10125C0000AF78607B6803F00703FB600C4BDB6826
:10126C00BB60BA684FF6FF031340BB60FB681A0201
:10127C00BB68134343F0BF6343F40033BB60044AC1
:10128C00BB68D36000BF1437BD4680BC704700BF3D
:10129C0000ED00E080B400AF044BDB681B0A03F0E8
:1012AC0007031846BD4680BC704700BF00ED00E048
:1012BC0080B483B000AF0346FB7197F90730002B65
:1012CC000BDBFB7903F01F02064997F907305B092A
:1012DC00012000FA02F241F8232000BF0C37BD4672
:1012EC0080BC704700E100E080B483B000AF0346DF
:1012FC003960FB7197F90730002B0ADB3B68DAB2D7
:10130C000C4997F907301201D2B20B4483F8002331
:10131C000AE03B68DAB20849FB7903F00F03043B9F
:10132C001201D2B20B441A7600BF0C37BD4680BCFA
:10133C00704700BF00E100E000ED00E080B489B030
:10134C0000AFF860B9607A60FB6803F00703FB61DB
:10135C00FB69C3F10703042B28BF0423BB61FB69A2
:10136C000433062B02D9FB69033B00E000237B61AD
:10137C004FF0FF32BB6902FA03F3DA43BB681A4041
:10138C007B699A404FF0FF317B6901FA03F3D94333
:10139C007B680B40134318462437BD4680BC70470E
:1013AC0080B582B000AF78607B68013BB3F1807F81
:1013BC0001D301230FE00A4A7B68013B53600F21E4
:1013CC004FF0FF30FFF790FF054B00229A60044B63
:1013DC0007221A60002318460837BD4680BD00BF9F
:1013EC0010E000E080B582B000AF78607868FFF75D
:1013FC002DFF00BF0837BD4680BD80B586B000AF5D
:10140C000346B9607A60FB7300237B61FFF742FFF0
:10141C0078617A68B9687869FFF790FF024697F9A6
:10142C000F3011461846FFF75FFF00BF1837BD4657
:10143C0080BD80B582B000AF0346FB7197F90730D1
:10144C001846FFF735FF00BF0837BD4680BD80B595
:10145C0082B000AF78607868FFF7A2FF03461846A9
:10146C000837BD4680BD000080B48BB000AF7860FB
:10147C00396000237B6200233B6248E101227B6AD6
:10148C0002FA03F3FB613B681B68FA691340BB610A
:10149C00BA69FB699A4240F037813B685B68A34AA2
:1014AC0093425ED0A14A934275D8A14A934258D038
:1014BC009F4A93426FD89F4A934252D09D4A93427F
:1014CC0069D89D4A93424CD09B4A934263D89B4A1D
:1014DC00934246D0994A93425DD8122B2AD8122BAC
:1014EC0059D801A252F823F06F15000849150008CD
:1014FC005B1500089D150008A3150008A31500082E
:10150C00A3150008A3150008A3150008A3150008CF
:10151C00A3150008A3150008A3150008A3150008BF
:10152C00A3150008A3150008A31500085115000801
:10153C0065150008824A934213D02CE03B68DB68A7
:10154C003B6229E03B68DB6804333B6224E03B6888
:10155C00DB6808333B621FE03B68DB680C333B62A3
:10156C001AE03B689B68002B02D104233B6213E01A
:10157C003B689B68012B05D108233B627B68FA69A9
:10158C001A6109E008233B627B68FA695A6103E03F
:10159C0000233B6200E000BFBB69FF2B01D87B68D6
:1015AC0001E07B6804337B61BB69FF2B02D87B6A4B
:1015BC009B0002E07B6A083B9B003B617B691A68DD
:1015CC000F213B6901FA03F3DB431A40396A3B698B
:1015DC0001FA03F31A437B691A603B685B6803F0FA
:1015EC008053002B00F09080564B9B69554A43F07A
:1015FC0001039361534B9B6903F00103BB60BB6810
:10160C00514A7B6A9B08023352F82330FB607B6A99
:10161C0003F003039B000F2202FA03F3DB43FA6887
:10162C001340FB607B68494A93420DD07B68484A63
:10163C00934207D07B68474A934201D1022304E0CE
:10164C00032302E0012300E000237A6A02F0030284
:10165C0092009340FA681343FB603B497B6A9B08FA
:10166C000233FA6841F823203B685B6803F480334B
:10167C00002B06D0384B1A683749BB6913430B60F3
:10168C0006E0354B1A68BB69DB43334913400B60EA
:10169C003B685B6803F40033002B06D02E4B5A6872
:1016AC002D49BB6913434B6006E02B4B5A68BB6951
:1016BC00DB43294913404B603B685B6803F48013A0
:1016CC00002B06D0244B9A682349BB6913438B60CB
:1016DC0006E0214B9A68BB69DB431F4913408B60C2
:1016EC003B685B6803F40013002B06D01A4BDA68D6
:1016FC001949BB691343CB6006E0174BDA68BB6929
:10170C00DB4315491340CB607B6A01337B623B683A
:10171C001A687B6A22FA03F3002B7FF4AFAE00BF8A
:10172C0000BF2C37BD4680BC704700BF0000321094
:10173C0000003110000022100000211000001210D7
:10174C000000111000100240000001400008014090
:10175C00000C0140001001400004014080B485B031
:10176C0000AF78600B467B807B689A687B8813405F
:10177C00002B02D00123FB7301E00023FB73FB7BE6
:10178C0018461437BD4680BC704780B483B000AF98
:10179C0078600B467B8013467B707B78002B03D0E4
:1017AC007A887B681A6103E07B881A047B681A616B
:1017BC0000BF0C37BD4680BC704780B485B000AF0D
:1017CC0078600B467B807B68DB68FB607A88FB6803
:1017DC0013401A04FB68D9437B880B401A437B687F
:1017EC001A6100BF1437BD4680BC704780B586B007
:1017FC0000AF78607B68002B01D101236CE27B6821
:10180C001B6803F00103002B00F08780924B5B6890
:10181C0003F00C03042B0CD08F4B5B6803F00C0310
:10182C00082B12D18C4B5B6803F48033B3F5803FEB
:10183C000BD1894B1B6803F40033002B6CD07B68F5
:10184C005B68002B68D1012346E27B685B68B3F5CB
:10185C00803F06D1804B1B687F4A43F48033136072
:10186C002EE07B685B68002B0CD17B4B1B687A4AA3
:10187C0023F480331360784B1B68774A23F480235E
:10188C0013601DE07B685B68B3F5A02F0CD1724B25
:10189C001B68714A43F4802313606F4B1B686E4ABC
:1018AC0043F4803313600BE06B4B1B686A4A23F4E0
:1018BC0080331360684B1B68674A23F480231360E2
:1018CC007B685B68002B13D0FFF7B6FC386108E02F
:1018DC00FFF7B2FC02463B69D31A642B01D90323F0
:1018EC00FAE15D4B1B6803F40033002BF0D014E0DD
:1018FC00FFF7A2FC386108E0FFF79EFC02463B694B
:10190C00D31A642B01D90323E6E1534B1B6803F470
:10191C000033002BF0D100E000BF7B681B6803F0A4
:10192C000203002B63D04C4B5B6803F00C03002BC1
:10193C000BD0494B5B6803F00C03082B1CD1464BB6
:10194C005B6803F48033002B16D1434B1B6803F008
:10195C000203002B05D07B681B69012B01D00123EE
:10196C00BAE13D4B1B6823F0F8027B685B69DB0036
:10197C00394913430B603AE07B681B69002B20D07C
:10198C00364B01221A60FFF757FC386108E0FFF76D
:10199C0053FC02463B69D31A022B01D903239BE16A
:1019AC002D4B1B6803F00203002BF0D02A4B1B6855
:1019BC0023F0F8027B685B69DB00274913430B605B
:1019CC0015E0264B00221A60FFF736FC386108E060
:1019DC00FFF732FC02463B69D31A022B01D90323D1
:1019EC007AE11D4B1B6803F00203002BF0D17B68DE
:1019FC001B6803F00803002B3AD07B689B69002B13
:101A0C0019D0174B01221A60FFF716FC386108E059
:101A1C00FFF712FC02463B69D31A022B01D90323B0
:101A2C005AE10D4B5B6A03F00203002BF0D001204E
:101A3C0000F0A6FA1CE00A4B00221A60FFF7FCFB30
:101A4C0038610FE0FFF7F8FB02463B69D31A022B13
:101A5C0008D9032340E100BF0010024000004242BD
:101A6C00800442429E4B5B6A03F00203002BE9D1D7
:101A7C007B681B6803F00403002B00F0A680002396
:101A8C00FB75974BDB6903F08053002B0DD1944B06
:101A9C00DB69934A43F08053D361914BDB6903F0CC
:101AAC008053BB60BB680123FB758E4B1B6803F432
:101ABC008073002B18D18B4B1B688A4A43F48073BC
:101ACC001360FFF7B9FB386108E0FFF7B5FB02467E
:101ADC003B69D31A642B01D90323FDE0814B1B68AE
:101AEC0003F48073002BF0D07B68DB68012B06D1EC
:101AFC007B4B1B6A7A4A43F0010313622DE07B682F
:101B0C00DB68002B0CD1764B1B6A754A23F0010362
:101B1C001362734B1B6A724A23F0040313621CE0BA
:101B2C007B68DB68052B0CD16D4B1B6A6C4A43F050
:101B3C00040313626A4B1B6A694A43F00103136284
:101B4C000BE0674B1B6A664A23F001031362644B7C
:101B5C001B6A634A23F0040313627B68DB68002B67
:101B6C0015D0FFF769FB38610AE0FFF765FB024609
:101B7C003B69D31A41F28832934201D90323ABE07B
:101B8C00574B1B6A03F00203002BEED014E0FFF757
:101B9C0053FB38610AE0FFF74FFB02463B69D31A4F
:101BAC0041F28832934201D9032395E04C4B1B6AD6
:101BBC0003F00203002BEED1FB7D012B05D1484B2A
:101BCC00DB69474A23F08053D3617B68DB69002BC8
:101BDC0000F08180424B5B6803F00C03082B61D052
:101BEC007B68DB69022B46D13F4B00221A60FFF762
:101BFC0023FB386108E0FFF71FFB02463B69D31A51
:101C0C00022B01D9032367E0354B1B6803F00073EB
:101C1C00002BF0D17B681B6AB3F5803F08D1304BA9
:101C2C005B6823F400327B689B682D4913434B603F
:101C3C002B4B5B6823F474127B68196A7B685B6AB4
:101C4C000B43274913434B60274B01221A60FFF7C4
:101C5C00F3FA386108E0FFF7EFFA02463B69D31A52
:101C6C00022B01D9032337E01D4B1B6803F00073D3
:101C7C00002BF0D02FE01C4B00221A60FFF7DCFA8F
:101C8C00386108E0FFF7D8FA02463B69D31A022BF9
:101C9C0001D9032320E0124B1B6803F00073002BC7
:101CAC00F0D118E07B68DB69012B01D1012313E033
:101CBC000B4B5B68FB60FB6803F480327B681B6A30
:101CCC009A4206D1FB6803F470127B685B6A9A42F5
:101CDC0001D0012300E0002318461837BD4680BD13
:101CEC0000100240007000406000424280B584B099
:101CFC0000AF786039607B68002B01D10123D0E004
:101D0C006A4B1B6803F007033A689A4210D9674B79
:101D1C001B6823F0070265493B6813430B60634B58
:101D2C001B6803F007033A689A4201D00123B8E01C
:101D3C007B681B6803F00203002B20D07B681B68B8
:101D4C0003F00403002B05D0594B5B68584A43F44D
:101D5C00E06353607B681B6803F00803002B05D01D
:101D6C00534B5B68524A43F460535360504B5B686F
:101D7C0023F0F0027B689B684D4913434B607B68F2
:101D8C001B6803F00103002B40D07B685B68012BC0
:101D9C0007D1474B1B6803F40033002B15D10123EB
:101DAC007FE07B685B68022B07D1414B1B6803F01B
:101DBC000073002B09D1012373E03D4B1B6803F02A
:101DCC000203002B01D101236BE0394B5B6823F03C
:101DDC0003027B685B68364913434B60FFF72CFAB0
:101DEC00F8600AE0FFF728FA0246FB68D31A41F2C2
:101DFC008832934201D9032353E02D4B5B6803F0E7
:101E0C000C027B685B689B009A42EBD1274B1B68EA
:101E1C0003F007033A689A4210D2244B1B6823F054
:101E2C00070222493B6813430B60204B1B6803F0ED
:101E3C0007033A689A4201D0012332E07B681B68A1
:101E4C0003F00403002B08D0194B5B6823F4E06209
:101E5C007B68DB68164913434B607B681B6803F097
:101E6C000803002B09D0124B5B6823F460527B688B
:101E7C001B69DB000E4913434B6000F021F802464E
:101E8C000B4B5B681B0903F00F030A49CB5C22FA6E
:101E9C0003F3094A1360094B1B681846FFF78AF9CC
:101EAC00002318461037BD4680BD00BF00200240FD
:101EBC000010024010280008040000200800002038
:101ECC0090B48AB000AF2A4B3C1D0FCB84E80F00B6
:101EDC0040F201233B800023FB610023BB61002304
:101EEC007B6200237B6100233B62224B5B68FB61BE
:101EFC00FB6903F00C03042B02D0082B03D02DE05C
:101F0C001D4B3B622DE0FB699B0C03F00F0307F1AB
:101F1C002802134413F8243C7B61FB6903F48033DF
:101F2C00002B13D0134B5B685B0C03F0010307F120
:101F3C002802134413F8283CBB617B690E4A02FB50
:101F4C0003F2BB69B2FBF3F37B6204E07B690B4ADF
:101F5C0002FB03F37B627B6A3B6202E0064B3B6253
:101F6C0000BF3B6A18462837BD4690BC704700BF7F
:101F7C00002800080010024000127A0000093D0001
:101F8C0080B485B000AF78600A4B1B680A4AA2FB8C
:101F9C0003235B0A7A6802FB03F3FB6000BFFB6858
:101FAC005A1EFA60002BF9D100BF00BF1437BD4692
:101FBC0080BC704704000020D34D621080B582B005
:101FCC0000AF78607B68002B01D1012341E07B6876
:101FDC0093F83D30DBB2002B06D17B68002283F8EE
:101FEC003C207868FFF728F87B68022283F83D20B4
:101FFC007B681A687B6804331946104600F06AFA4D
:10200C007B68012283F846207B68012283F83E20FE
:10201C007B68012283F83F207B68012283F84020F3
:10202C007B68012283F841207B68012283F84220DF
:10203C007B68012283F843207B68012283F84420CB
:10204C007B68012283F845207B68012283F83D20C0
:10205C00002318460837BD4680BD000080B485B00B
:10206C0000AF78607B6893F83D30DBB2012B01D078
:10207C00012335E07B68022283F83D207B681B68D6
:10208C00DA687B681B6842F00102DA607B681B68C7
:10209C00164A934209D07B681B68B3F1804F04D079
:1020AC007B681B68124A934211D17B681B689B6842
:1020BC0003F00703FB60FB68062B10D07B681B68E2
:1020CC001A687B681B6842F001021A6007E07B68A3
:1020DC001B681A687B681B6842F001021A600023B7
:1020EC0018461437BD4680BC704700BF002C014019
:1020FC000004004080B582B000AF78607B681B683C
:10210C001B6903F00203022B22D17B681B68DB687E
:10211C0003F00203022B1BD17B681B686FF00202D9
:10212C001A617B6801221A777B681B689B6903F034
:10213C000303002B03D0786800F0B1F905E0786850
:10214C0000F0A4F9786800F0B3F97B6800221A77E4
:10215C007B681B681B6903F00403042B22D17B688A
:10216C001B68DB6803F00403042B1BD17B681B6822
:10217C006FF004021A617B6802221A777B681B6875
:10218C009B6903F44073002B03D0786800F087F947
:10219C0005E0786800F07AF9786800F089F97B68D6
:1021AC0000221A777B681B681B6903F00803082B55
:1021BC0022D17B681B68DB6803F00803082B1BD15A
:1021CC007B681B686FF008021A617B6804221A771F
:1021DC007B681B68DB6903F00303002B03D0786872
:1021EC0000F05DF905E0786800F050F9786800F0CF
:1021FC005FF97B6800221A777B681B681B6903F008
:10220C001003102B22D17B681B68DB6803F01003D2
:10221C00102B1BD17B681B686FF010021A617B6856
:10222C0008221A777B681B68DB6903F44073002B68
:10223C0003D0786800F033F905E0786800F026F9EF
:10224C00786800F035F97B6800221A777B681B6888
:10225C001B6903F00103012B0ED17B681B68DB6843
:10226C0003F00103012B07D17B681B686FF001029F
:10227C001A617868FEF7F6FD7B681B681B6903F032
:10228C008003802B0ED17B681B68DB6803F0800316
:10229C00802B07D17B681B686FF080021A6178680D
:1022AC0000F067FA7B681B681B6903F04003402B46
:1022BC000ED17B681B68DB6803F04003402B07D111
:1022CC007B681B686FF040021A61786800F0F9F8BF
:1022DC007B681B681B6903F02003202B0ED17B68E5
:1022EC001B68DB6803F02003202B07D17B681B687D
:1022FC006FF020021A61786800F032FA00BF0837DC
:10230C00BD4680BD80B584B000AF786039607B6815
:10231C0093F83C30012B01D10223B3E07B680122FE
:10232C0083F83C207B68022283F83D207B681B6885
:10233C009B68FB60FB6823F07703FB60FB6823F46E
:10234C007F43FB607B681B68FA689A603B681B687C
:10235C00B3F5005F3ED0B3F5005F00F28780B3F5B4
:10236C00805F00F08580B3F5805F7FD8702B1AD02A
:10237C00702B7BD8602B50D0602B77D8502B3CD057
:10238C00502B73D8402B58D0402B6FD8302B64D0A7
:10239C00302B6BD8202B60D0202B67D8002B5CD037
:1023AC00102B5AD062E07B6818683B6899683B68D0
:1023BC005A683B68DB6800F05CF97B681B689B68BB
:1023CC00FB60FB6843F07703FB607B681B68FA6873
:1023DC009A604EE07B6818683B6899683B685A685D
:1023EC003B68DB6800F045F97B681B689A687B6882
:1023FC001B6842F480429A603BE07B6818683B683B
:10240C0059683B68DB681A4600F0BCF87B681B68AF
:10241C005021184600F013F92BE07B6818683B68D4
:10242C0059683B68DB681A4600F0DAF87B681B6871
:10243C006021184600F003F91BE07B6818683B68C4
:10244C0059683B68DB681A4600F09CF87B681B688F
:10245C004021184600F0F3F80BE07B681A683B68E3
:10246C001B681946104600F0EAF802E000BF00E0D5
:10247C0000BF7B68012283F83D207B68002283F833
:10248C003C20002318461037BD4680BD80B483B075
:10249C0000AF786000BF0C37BD4680BC704780B47D
:1024AC0083B000AF786000BF0C37BD4680BC70476E
:1024BC0080B483B000AF786000BF0C37BD4680BCE1
:1024CC00704780B483B000AF786000BF0C37BD4656
:1024DC0080BC704780B485B000AF786039607B6891
:1024EC001B68FB607B68254A934207D07B68B3F17D
:1024FC00804F03D07B68224A934208D1FB6823F0BB
:10250C007003FB603B685B68FA681343FB607B6895
:10251C001A4A934207D07B68B3F1804F03D07B6893
:10252C00174A934208D1FB6823F44073FB603B6865
:10253C00DB68FA681343FB60FB6823F080023B689E
:10254C005B691343FB607B68FA681A603B689A68A6
:10255C007B68DA623B681A687B689A627B68074A18
:10256C00934203D13B681A697B681A637B6801222A
:10257C005A6100BF1437BD4680BC7047002C014027
:10258C000004004080B487B000AFF860B9607A6096
:10259C00FB681B6A7B61FB681B6A23F00102FB680A
:1025AC001A62FB689B693B613B6923F0F0033B615A
:1025BC007B681B013A6913433B617B6923F00A0377
:1025CC007B617A69BB6813437B61FB683A699A61EA
:1025DC00FB687A691A6200BF1C37BD4680BC704725
:1025EC0080B487B000AFF860B9607A60FB681B6A92
:1025FC0023F01002FB681A62FB689B697B61FB6825
:10260C001B6A3B617B6923F470437B617B681B0312
:10261C007A6913437B613B6923F0A0033B61BB6880
:10262C001B013A6913433B61FB687A699A61FB6849
:10263C003A691A6200BF1C37BD4680BC704780B433
:10264C0085B000AF786039607B689B68FB60FB6885
:10265C0023F07003FB603A68FB68134343F00703F5
:10266C00FB607B68FA689A6000BF1437BD4680BC7B
:10267C00704780B487B000AFF860B9607A603B6097
:10268C00FB689B687B617B6923F47F437B613B68C0
:10269C001A027B681A43BB6813437A6913437B6144
:1026AC00FB687A699A6000BF1C37BD4680BC7047D6
:1026BC0080B485B000AF786039607B6893F83C30AB
:1026CC00012B01D1022341E07B68012283F83C20DD
:1026DC007B68022283F83D207B681B685B68FB608B
:1026EC007B681B689B68BB60FB6823F07003FB6016
:1026FC003B681B68FA681343FB607B681B68FA68CD
:10270C005A607B681B68144A934209D07B681B682B
:10271C00B3F1804F04D07B681B68104A93420CD1F4
:10272C00BB6823F08003BB603B685B68BA681343EB
:10273C00BB607B681B68BA689A607B68012283F86F
:10274C003D207B68002283F83C2000231846143778
:10275C00BD4680BC704700BF002C01400004004007
:10276C0080B483B000AF786000BF0C37BD4680BC2E
:10277C00704780B483B000AF786000BF0C37BD46A3
:10278C0080BC704770B500260C4D0D4C641BA4101A
:10279C00A64209D100F022F800260A4D0A4C641B0F
:1027AC00A410A64205D170BD55F8043B98470136DC
:1027BC00EEE755F8043B98470136F2E7202800086D
:1027CC00202800082028000824280008034602447A
:1027DC00934200D1704703F8011BF9E7F8B500BF2D
:1027EC00F8BC08BC9E467047F8B500BFF8BC08BCE6
:0427FC009E4670473E
:1028000002030405060708090A0B0C0D0E0F101031
:102810000000000000000000010203040607080990
:04282000310100087A
:042824000D0100089A
:10282800010101000024F400100000000100000074
:040000050800114995
:00000001FF
