:020000040800F2
:1000000000280020B113000841130008471300081E
:100010004D13000853130008591300080000000096
:100020000000000000000000000000005F13000856
:100030006B1300080000000077130008831300080A
:10004000F9130008F9130008F9130008F913000860
:10005000F9130008F9130008F9130008F913000850
:10006000F9130008F9130008F9130008F913000840
:10007000F9130008F9130008F9130008F913000830
:10008000F9130008F9130008F9130008F913000820
:10009000F9130008F9130008F9130008F913000810
:1000A000F9130008F9130008F9130008F913000800
:1000B00091130008F913000800000000F91300086C
:1000C000F91300080000000000000000F913000808
:1000D00000000000F9130008F913000800000000F8
:1000E000F9130008F9130008F913000800000000D4
:1000F0000000000000000000000000000000000000
:0C01000000000000000000005FF808F1A3
:10010C0010B5054C237833B9044B13B10448AFF345
:10011C0000800123237010BD180000200000000097
:10012C00242A000808B5034B1BB103490348AFF35D
:10013C00008008BD000000001C000020242A0008DC
:10014C0080B582B000AF78607B68092B00F28081AB
:10015C0001A252F823F000BF8D010008D501000860
:10016C001D02000865020008AD020008F502000837
:10017C003D03000885030008CD03000815040008A2
:10018C0000220121C64801F01DFC00220221C448B6
:10019C0001F018FC00220421C14801F013FC0022DC
:1001AC000821BF4801F00EFC00221021BC4801F0D0
:1001BC0009FC00222021BA4801F004FC0122402154
:1001CC00B74801F0FFFB67E101220121B44801F0BF
:1001DC00F9FB00220221B24801F0F4FB00220421B9
:1001EC00AF4801F0EFFB01220821AD4801F0EAFB1A
:1001FC0001221021AA4801F0E5FB01222021A84888
:10020C0001F0E0FB01224021A54801F0DBFB43E1BA
:10021C0000220121A24801F0D5FB00220221A048B6
:10022C0001F0D0FB012204219D4801F0CBFB002200
:10023C0008219B4801F0C6FB00221021984801F0D0
:10024C00C1FB01222021964801F0BCFB0022402179
:10025C00934801F0B7FB1FE100220121904801F007
:10026C00B1FB002202218E4801F0ACFB00220421DC
:10027C008B4801F0A7FB00220821894801F0A2FB62
:10028C0001221021864801F09DFB01222021844887
:10029C0001F098FB00224021814801F093FBFBE028
:1002AC00012201217E4801F08DFB002202217C48B5
:1002BC0001F088FB00220421794801F083FB012224
:1002CC000821774801F07EFB01221021744801F0CF
:1002DC0079FB00222021724801F074FB002240219E
:1002EC006F4801F06FFBD7E0002201216C4801F050
:1002FC0069FB012202216A4801F064FB00220421FF
:10030C00674801F05FFB00220821654801F05AFBA9
:10031C0001221021624801F055FB00222021604887
:10032C0001F050FB002240215D4801F04BFBB3E093
:10033C00002201215A4801F045FB012202215848B4
:10034C0001F040FB00220421554801F03BFB002248
:10035C000821534801F036FB00221021504801F0CF
:10036C0031FB002220214E4801F02CFB00224021C1
:10037C004B4801F027FB8FE000220121484801F097
:10038C0021FB00220221464801F01CFB0022042123
:10039C00434801F017FB01220821414801F012FBF0
:1003AC00012210213E4801F00DFB012220213C4886
:1003BC0001F008FB01224021394801F003FB6BE0FE
:1003CC0000220121364801F0FDFA002202213448B6
:1003DC0001F0F8FA00220421314801F0F3FA00226E
:1003EC0008212F4801F0EEFA002210212C4801F0D0
:1003FC00E9FA002220212A4801F0E4FA00224021E7
:10040C00274801F0DFFA47E000220121244801F0DF
:10041C00D9FA00220221224801F0D4FA0022042148
:10042C001F4801F0CFFA002208211D4801F0CAFA3A
:10043C00012210211A4801F0C5FA00222021184887
:10044C0001F0C0FA00224021154801F0BBFA23E06C
:10045C0001220121124801F0B5FA012202211048B3
:10046C0001F0B0FA012204210D4801F0ABFA01228F
:10047C0008210B4801F0A6FA01221021084801F0CE
:10048C00A1FA01222021064801F09CFA0122402108
:10049C00034801F097FA00BF00BF0837BD4680BD86
:1004AC00000C014080B582B000AF78607B68032BF4
:1004BC007DD801A252F823F0D50400080D050008E0
:1004CC00450500087D05000800224021454801F043
:1004DC0079FA01228021434801F074FA01224FF489
:1004EC008071404801F06EFA01224FF400713D48D2
:1004FC0001F068FA3C4B1B681846FFF721FE6DE0D3
:10050C0001224021374801F05DFA00228021354854
:10051C0001F058FA01224FF48071324801F052FA7E
:10052C0001224FF400712F4801F04CFA2E4B5B68FE
:10053C001846FFF705FE51E001224021294801F041
:10054C0041FA01228021274801F03CFA00224FF4A5
:10055C008071244801F036FA01224FF400712148D1
:10056C0001F030FA204B9B681846FFF7E9FD35E0A7
:10057C00012240211B4801F025FA01228021194853
:10058C0001F020FA01224FF48071164801F01AFA9A
:10059C0000224FF40071134801F014FA124BDB687F
:1005AC001846FFF7CDFD114B00221A6016E0012210
:1005BC0040210C4801F006FA01228021094801F083
:1005CC0001FA01224FF48071064801F0FBF9012277
:1005DC004FF40071034801F0F5F900BF00BF083774
:1005EC00BD4680BD0008014074000020340000208E
:1005FC0080B400AF1A4B1B681A4A82FB031292108C
:10060C00DB17D31A184A1360154B1968154B83FB6B
:10061C0001239A10CB17D21A13469B0013445B008C
:10062C00CA1A114B5A60114B1B680E4A82FB0312FB
:10063C009210DB17D31A0C4A93600C4B1968094BB8
:10064C0083FB01239A10CB17D21A13469B00134439
:10065C005B00CA1A044BDA6000BFBD4680BC704711
:10066C00000000206766666674000020040000200D
:10067C0080B582B000AF0346FB80FB88FF2B00F0F7
:10068C001281FF2B00F3DE80042B13DC002BC0F255
:10069C00D980042B00F2D68001A252F823F000BFBF
:1006AC00C90600082B070008B70800088D070008CA
:1006BC00B7080008CC2B00F09480C3E001224FF463
:1006CC0080717C4801F07EF901224FF40071794869
:1006DC0001F078F901224FF48061764801F072F94B
:1006EC0001224FF40061734801F06CF901224FF4C0
:1006FC008051704801F066F901224FF400516D48A9
:10070C0001F060F901224FF480416A4801F05AF976
:10071C0001224FF40041674801F054F9C6E0012270
:10072C004FF48071634801F04DF900224FF40071D1
:10073C00604801F047F900224FF480615D4801F0F8
:10074C0041F900224FF400615A4801F03BF90022B4
:10075C004FF48051574801F035F900224FF4005105
:10076C00544801F02FF900224FF48041514801F018
:10077C0029F900224FF400414E4801F023F995E08D
:10078C0001224FF480714B4801F01CF901224FF407
:10079C000071484801F016F900224FF48061454879
:1007AC0001F010F900224FF40061424801F00AF9FF
:1007BC0000224FF480513F4801F004F900224FF41D
:1007CC0000513C4801F0FEF800224FF480413948BA
:1007DC0001F0F8F800224FF40041364801F0F2F82D
:1007EC0064E000224FF48071324801F0EBF80022F3
:1007FC004FF400712F4801F0E5F801224FF48061AD
:10080C002C4801F0DFF801224FF40061294801F077
:10081C00D9F800224FF48051264801F0D3F8002279
:10082C004FF40051234801F0CDF801224FF48041E0
:10083C00204801F0C7F801224FF400411D4801F097
:10084C00C1F833E001224FF480711A4801F0BAF874
:10085C0001224FF40071174801F0B4F801224FF453
:10086C008061144801F0AEF801224FF40061114888
:10087C0001F0A8F801224FF480510E4801F0A2F8C3
:10088C0001224FF400510B4801F09CF801224FF467
:10089C008041084801F096F801224FF400410548C8
:1008AC0001F090F802E000BF00E000BF00BF083785
:1008BC00BD4680BD000C014080B582B000AF7860B1
:1008CC007B68072B00F2948101A252F823F000BF41
:1008DC00FD0800085B090008B9090008170A0008A0
:1008EC00750A0008D30A0008310B00088F0B0008AA
:1008FC0000220421BC4801F065F801220821BA4805
:10090C0001F060F801224FF48061B74801F05AF809
:10091C0001224FF40061B44801F054F801224FF465
:10092C008051B14801F04EF801224FF40051AE480D
:10093C0001F048F801224FF48041AB4801F042F835
:10094C0001224FF40041A84801F03CF87FE101225C
:10095C000421A54801F036F800220821A24801F034
:10096C0031F801224FF480619F4801F02BF80122ED
:10097C004FF400619C4801F025F801224FF480519E
:10098C00994801F01FF801224FF40051964801F0EC
:10099C0019F801224FF48041934801F013F8012219
:1009AC004FF40041904801F00DF850E10122042170
:1009BC008D4801F007F8012208218B4801F002F85C
:1009CC0000224FF48061884800F0FCFF01224FF4B4
:1009DC000061854800F0F6FF01224FF480518248F7
:1009EC0000F0F0FF01224FF400517F4800F0EAFFC5
:1009FC0001224FF480417C4800F0E4FF01224FF4C7
:100A0C000041794800F0DEFF21E101220421764803
:100A1C0000F0D8FF01220821734800F0D3FF012217
:100A2C004FF48061704800F0CDFF00224FF400615C
:100A3C006D4800F0C7FF01224FF480516A4800F066
:100A4C00C1FF01224FF40051674800F0BBFF0122A7
:100A5C004FF48041644800F0B5FF01224FF400418F
:100A6C00614800F0AFFFF2E0012204215E4800F083
:100A7C00A9FF012208215C4800F0A4FF01224FF4D9
:100A8C008061594800F09EFF01224FF400615648E6
:100A9C0000F098FF00224FF48051534800F092FF71
:100AAC0001224FF40051504800F08CFF01224FF40A
:100ABC0080414D4800F086FF01224FF400414A4826
:100ACC0000F080FFC3E001220421474800F07AFFC8
:100ADC0001220821444800F075FF01224FF4806187
:100AEC00414800F06FFF01224FF400613E4800F0D6
:100AFC0069FF01224FF480513B4800F063FF002254
:100B0C004FF40051384800F05DFF01224FF4804152
:100B1C00354800F057FF01224FF40041324800F0F5
:100B2C0051FF94E0012204212F4800F04BFF0122D9
:100B3C0008212D4800F046FF01224FF480612A481D
:100B4C0000F040FF01224FF40061274800F03AFF0B
:100B5C0001224FF48051244800F034FF01224FF45D
:100B6C000051214800F02EFF00224FF480411E4816
:100B7C0000F028FF01224FF400411B4800F022FF37
:100B8C0065E001220421184800F01CFF0122082115
:100B9C00154800F017FF01224FF48061124800F055
:100BAC0011FF01224FF400610F4800F00BFF0122EE
:100BBC004FF480510C4800F005FF01224FF4005116
:100BCC00094800F0FFFE01224FF48041064800F076
:100BDC00F9FE00224FF40041034800F0F3FE034BF2
:100BEC0000221A6033E000BF0008014038000020EA
:100BFC00012204211B4800F0E5FE012208211948BE
:100C0C0000F0E0FE01224FF48061164800F0DAFE9D
:100C1C0001224FF40061134800F0D4FE01224FF47E
:100C2C008051104800F0CEFE01224FF400510D48C7
:100C3C0000F0C8FE01224FF480410A4800F0C2FEC9
:100C4C0001224FF40041074800F0BCFE00BF064AE9
:100C5C007B6832F813301846FFF70AFD00BF0837DF
:100C6C00BD4680BD000801406400002080B483B004
:100C7C0000AF0F4B1B883B6000237B600BE07B6855
:100C8C0001330B4A32F81310094A7B6822F813100F
:100C9C007B6801337B607B68062BF0DD3B689AB286
:100CAC00034BDA8100BF0C37BD4680BC704700BFD8
:100CBC006400002080B500AF00F09AFB00F028F92A
:100CCC0000F0AEF900F060F9834801F0E5FA192064
:100CDC0000F00CFA622000F01DFA642000F02EFAED
:100CEC00032000F03FFA182000F050FA01224021B6
:100CFC007A4800F067FE01228021784800F062FEFD
:100D0C0001224FF48071754800F05CFE01224FF413
:100D1C000071724800F056FE012210216F4800F05D
:100D2C0051FE6F4B00221A806D4B03225A806C4B84
:100D3C0001229A806A4BCC22DA80694BCC221A8130
:100D4C00674B01225A81664B03229A81644B002225
:100D5C00DA8101220421614800F034FE01220821CD
:100D6C005E4800F02FFE01224FF480615B4800F0DA
:100D7C0029FE01224FF40061584800F023FE0122A5
:100D8C004FF48051554800F01DFE01224FF40051E4
:100D9C00524800F017FE01224FF480414F4800F0FA
:100DAC0011FE01224FF400414C4800F00BFE0122D1
:100DBC004FF480714B4800F005FE01224FF4007196
:100DCC00484800F0FFFD01224FF48061454800F0D7
:100DDC00F9FD01224FF40061424800F0F3FD0122BD
:100DEC004FF480513F4800F0EDFD01224FF40051CB
:100DFC003C4800F0E7FD01224FF48041394800F0F7
:100E0C00E1FD01224FF40041364800F0DBFD364B8A
:100E1C001B68012B06D1642000F07CF910212F48AF
:100E2C0000F0E8FD314B1B68012B2CD1642000F045
:100E3C0085F92F4B1B683B2B04DC2D4B1B680133B6
:100E4C002B4A13602A4B1B683B2B07DD284B0022D7
:100E5C001A60284B1B680133264A1360254B1B680C
:100E6C003B2B07DD234B00221A60234B1B680133FD
:100E7C00214A1360204B1B68172B02DD1E4B0022EE
:100E8C001A60FFF7B5FB1D4B1B68012B0AD1032021
:100E9C0000F068F91A4B1B685A1C19490A6018466D
:100EAC00FFF70AFD174B1B68012B04D1182000F02B
:100EBC006DF9FFF7DBFE144B1B68012BA7D1192032
:100ECC0000F014F9114B1B685A1C10490A601846A3
:100EDC00FFF7E8FA9BE700BF840000200008014000
:100EEC0064000020000C0140440000204C00002055
:100EFC000800002004000020000000205400002006
:100F0C00380000205C0000203C0000203400002051
:100F1C0080B590B000AF07F11803282200211846C5
:100F2C0001F072FD3B1D00221A605A609A60DA6073
:100F3C001A610223BB610123BB621023FB620023F5
:100F4C007B6307F11803184600F06EFD0346002B77
:100F5C0001D000F0C5F80F237B600023BB60002399
:100F6C00FB6000233B6100237B613B1D0021184685
:100F7C0000F0DAFF0346002B01D000F0B1F800BFFF
:100F8C004037BD4680BD000080B586B000AF07F18C
:100F9C00080300221A605A609A60DA603B4600220D
:100FAC001A605A601D4B4FF080421A601B4B41F681
:100FBC003F725A60194B00229A60184B0922DA6072
:100FCC00164B00221A61154B00229A61134801F04E
:100FDC0013F90346002B01D000F082F84FF4805334
:100FEC00BB6007F1080319460C4801F0A9FA034647
:100FFC00002B01D000F074F800233B6000237B60D1
:10100C003B461946054801F071FC0346002B01D004
:10101C0000F066F800BF1837BD4680BD8400002084
:10102C0080B586B000AF07F1080300221A605A6041
:10103C009A60DA60224B9B69214A43F00403936166
:10104C001F4B9B6903F004037B607B681C4B9B6903
:10105C001B4A43F008039361194B9B6903F0080387
:10106C003B603B6800224FF6FC71164800F0AAFC6E
:10107C0000224FF67F71144800F0A4FC4FF6FC736D
:10108C00BB600123FB6000233B6102237B6107F102
:10109C00080319460B4800F01BFB4FF67F73BB602F
:1010AC000123FB6000233B6102237B6107F10803F2
:1010BC001946054800F00CFB00BF1837BD4680BD33
:1010CC000010024000080140000C014080B582B0C5
:1010DC0000AF786000F06EF800BF0837BD4680BDE9
:1010EC0080B400AF72B600BFFEE7000080B483B0DE
:1010FC0000AF7860054A7B681360054B00221A60CC
:10110C0000BF0C37BD4680BC704700BF40000020BC
:10111C003C00002080B483B000AF7860054A7B6847
:10112C001360054B00221A6000BF0C37BD4680BC13
:10113C00704700BF480000204400002080B483B0FA
:10114C0000AF7860054A7B681360054B00221A607B
:10115C0000BF0C37BD4680BC704700BF500000205C
:10116C004C00002080B483B000AF7860054A7B68E7
:10117C001360054B00221A6000BF0C37BD4680BCC3
:10118C00704700BF580000205400002080B483B08A
:10119C0000AF7860054A7B681360054B00221A602B
:1011AC0000BF0C37BD4680BC704700BF60000020FC
:1011BC005C00002080B400AF294B1B68002B0BDDBA
:1011CC00274B1B68013B264A1360254B1B68002BE1
:1011DC0002DC244B01221A60234B1B68002B0BDD15
:1011EC00214B1B68013B204A13601F4B1B68002BD3
:1011FC0002DC1E4B01221A601D4B1B68002B0BDD01
:10120C001B4B1B68013B1A4A1360194B1B68002BC4
:10121C0002DC184B01221A60174B1B68002B0BDDEC
:10122C00154B1B68013B144A1360134B1B68002BB6
:10123C0002DC124B01221A60114B1B68002B0BDDD8
:10124C000F4B1B68013B0E4A13600D4B1B68002BA8
:10125C0002DC0C4B01221A6000BFBD4680BC7047FB
:10126C00400000203C0000204800002044000020EA
:10127C00500000204C00002058000020540000209A
:10128C00600000205C00002080B485B000AF154BDE
:10129C009B69144A43F001039361124B9B6903F061
:1012AC000103BB60BB680F4BDB690E4A43F08053F4
:1012BC00D3610C4BDB6903F080537B607B680A4B7A
:1012CC005B68FB60FB6823F0E063FB60FB6843F04A
:1012DC008063FB60044AFB68536000BF1437BD4653
:1012EC0080BC7047001002400000014080B584B003
:1012FC0000AF78607B681B68B3F1804F13D10C4B47
:10130C00DB690B4A43F00103D361094BDB6903F042
:10131C000103FB60FB68002200211C2000F0A1F9F6
:10132C001C2000F0BAF900BF1037BD4680BD00BFCD
:10133C000010024080B400AFFEE780B400AFFEE7BF
:10134C0080B400AFFEE780B400AFFEE780B400AF1E
:10135C00FEE780B400AF00BFBD4680BC704780B4D0
:10136C0000AF00BFBD4680BC704780B400AF00BF6B
:10137C00BD4680BC704780B500AF00F07FF800BF61
:10138C0080BD000080B500AF024800F0D1FF00BF67
:10139C0080BD00BF8400002080B400AF00BFBD46FC
:1013AC0080BC70470C480D490D4A002302E0D4580C
:1013BC00C4500433C4188C42F9D30A4A0A4C002393
:1013CC0001E013600432A242FBD3FFF7E5FF01F00A
:1013DC00F7FAFFF76FFC70470000002018000020A0
:1013EC00642A000818000020D0000020FEE700004E
:1013FC0080B500AF084B1B68074A43F0100313601D
:10140C00032000F023F90F2000F008F8FFF73CFF51
:10141C000023184680BD00BF0020024080B582B07A
:10142C0000AF7860124B1A68124B1B7819464FF4B8
:10143C007A73B3FBF1F3B2FBF3F3184600F03BF90C
:10144C000346002B01D001230EE07B680F2B0AD83A
:10145C00002279684FF0FF3000F003F9064A7B68F0
:10146C001360002300E0012318460837BD4680BDF9
:10147C000C000020140000201000002080B400AFED
:10148C00054B1B781A46054B1B681344034A136023
:10149C0000BFBD4680BC704714000020CC0000206B
:1014AC0080B400AF024B1B681846BD4680BC704729
:1014BC00CC00002080B485B000AF78607B6803F06E
:1014CC000703FB600C4BDB68BB60BA684FF6FF038D
:1014DC001340BB60FB681A02BB68134343F0BF6345
:1014EC0043F40033BB60044ABB68D36000BF1437BD
:1014FC00BD4680BC704700BF00ED00E080B400AF7B
:10150C00044BDB681B0A03F007031846BD4680BC7E
:10151C00704700BF00ED00E080B483B000AF03461D
:10152C00FB7197F90730002B0BDBFB7903F01F02E3
:10153C00064997F907305B09012000FA02F241F8DD
:10154C00232000BF0C37BD4680BC704700E100E093
:10155C0080B483B000AF03463960FB7197F9073054
:10156C00002B0ADB3B68DAB20C4997F90730120101
:10157C00D2B20B4483F800230AE03B68DAB2084984
:10158C00FB7903F00F03043B1201D2B20B441A7621
:10159C0000BF0C37BD4680BC704700BF00E100E0C7
:1015AC0000ED00E080B489B000AFF860B9607A60FB
:1015BC00FB6803F00703FB61FB69C3F10703042B12
:1015CC0028BF0423BB61FB690433062B02D9FB69DA
:1015DC00033B00E000237B614FF0FF32BB6902FA52
:1015EC0003F3DA43BB681A407B699A404FF0FF3132
:1015FC007B6901FA03F3D9437B680B40134318460C
:10160C002437BD4680BC704780B582B000AF78608F
:10161C007B68013BB3F1807F01D301230FE00A4AC1
:10162C007B68013B53600F214FF0FF30FFF790FFB9
:10163C00054B00229A60044B07221A6000231846BF
:10164C000837BD4680BD00BF10E000E080B582B019
:10165C0000AF78607868FFF72DFF00BF0837BD46F4
:10166C0080BD80B586B000AF0346B9607A60FB736D
:10167C0000237B61FFF742FF78617A68B96878696B
:10168C00FFF790FF024697F90F3011461846FFF707
:10169C005FFF00BF1837BD4680BD80B582B000AF7C
:1016AC000346FB7197F907301846FFF735FF00BF6B
:1016BC000837BD4680BD80B582B000AF78607868D1
:1016CC00FFF7A2FF034618460837BD4680BD000051
:1016DC0080B48BB000AF7860396000237B6200234C
:1016EC003B6248E101227B6A02FA03F3FB613B682F
:1016FC001B68FA691340BB61BA69FB699A4240F0F6
:10170C0037813B685B68A34A93425ED0A14A9342FF
:10171C0075D8A14A934258D09F4A93426FD89F4A9A
:10172C00934252D09D4A934269D89D4A93424CD0E1
:10173C009B4A934263D89B4A934246D0994A934220
:10174C005DD8122B2AD8122B59D801A252F823F0AB
:10175C00D7170008B1170008C317000805180008B0
:10176C000B1800080B1800080B1800080B180008C1
:10177C000B1800080B1800080B1800080B180008B1
:10178C000B1800080B1800080B1800080B180008A1
:10179C000B180008B9170008CD170008824A9342AD
:1017AC0013D02CE03B68DB683B6229E03B68DB68CC
:1017BC0004333B6224E03B68DB6808333B621FE088
:1017CC003B68DB680C333B621AE03B689B68002B80
:1017DC0002D104233B6213E03B689B68012B05D1CB
:1017EC0008233B627B68FA691A6109E008233B62B3
:1017FC007B68FA695A6103E000233B6200E000BF9A
:10180C00BB69FF2B01D87B6801E07B6804337B61EB
:10181C00BB69FF2B02D87B6A9B0002E07B6A083B0A
:10182C009B003B617B691A680F213B6901FA03F34A
:10183C00DB431A40396A3B6901FA03F31A437B69AB
:10184C001A603B685B6803F08053002B00F09080BB
:10185C00564B9B69554A43F001039361534B9B696B
:10186C0003F00103BB60BB68514A7B6A9B080233DF
:10187C0052F82330FB607B6A03F003039B000F22BA
:10188C0002FA03F3DB43FA681340FB607B68494AB6
:10189C0093420DD07B68484A934207D07B68474AF5
:1018AC00934201D1022304E0032302E0012300E070
:1018BC0000237A6A02F0030292009340FA68134301
:1018CC00FB603B497B6A9B080233FA6841F8232092
:1018DC003B685B6803F48033002B06D0384B1A68E6
:1018EC003749BB6913430B6006E0354B1A68BB697B
:1018FC00DB43334913400B603B685B6803F40033F4
:10190C00002B06D02E4B5A682D49BB6913434B60F4
:10191C0006E02B4B5A68BB69DB43294913404B60EB
:10192C003B685B6803F48013002B06D0244B9A6849
:10193C002349BB6913438B6006E0214B9A68BB6952
:10194C00DB431F4913408B603B685B6803F4001357
:10195C00002B06D01A4BDA681949BB691343CB60CC
:10196C0006E0174BDA68BB69DB4315491340CB60C3
:10197C007B6A01337B623B681A687B6A22FA03F349
:10198C00002B7FF4AFAE00BF00BF2C37BD4680BC30
:10199C00704700BF00003210000031100000221010
:1019AC000000211000001210000011100010024065
:1019BC000000014000080140000C014000100140F3
:1019CC000004014080B483B000AF78600B467B808C
:1019DC0013467B707B78002B03D07A887B681A6166
:1019EC0003E07B881A047B681A6100BF0C37BD4684
:1019FC0080BC704780B485B000AF78600B467B80AC
:101A0C007B68DB68FB607A88FB6813401A04FB6810
:101A1C00D9437B880B401A437B681A6100BF14378B
:101A2C00BD4680BC7047000080B586B000AF7860C2
:101A3C007B68002B01D101236CE27B681B6803F0EF
:101A4C000103002B00F08780924B5B6803F00C03C2
:101A5C00042B0CD08F4B5B6803F00C03082B12D1BA
:101A6C008C4B5B6803F48033B3F5803F0BD1894B0F
:101A7C001B6803F40033002B6CD07B685B68002B75
:101A8C0068D1012346E27B685B68B3F5803F06D1E1
:101A9C00804B1B687F4A43F4803313602EE07B68D5
:101AAC005B68002B0CD17B4B1B687A4A23F4803388
:101ABC001360784B1B68774A23F4802313601DE076
:101ACC007B685B68B3F5A02F0CD1724B1B68714A15
:101ADC0043F4802313606F4B1B686E4A43F48033CE
:101AEC0013600BE06B4B1B686A4A23F48033136062
:101AFC00684B1B68674A23F4802313607B685B6820
:101B0C00002B13D0FFF7CCFC386108E0FFF7C8FCC2
:101B1C0002463B69D31A642B01D90323FAE15D4BCE
:101B2C001B6803F40033002BF0D014E0FFF7B8FC73
:101B3C00386108E0FFF7B4FC02463B69D31A642B0A
:101B4C0001D90323E6E1534B1B6803F40033002B4C
:101B5C00F0D100E000BF7B681B6803F00203002B90
:101B6C0063D04C4B5B6803F00C03002B0BD0494B40
:101B7C005B6803F00C03082B1CD1464B5B6803F429
:101B8C008033002B16D1434B1B6803F00203002B50
:101B9C0005D07B681B69012B01D00123BAE13D4BB9
:101BAC001B6823F0F8027B685B69DB00394913433F
:101BBC000B603AE07B681B69002B20D0364B01226E
:101BCC001A60FFF76DFC386108E0FFF769FC02460C
:101BDC003B69D31A022B01D903239BE12D4B1B68C4
:101BEC0003F00203002BF0D02A4B1B6823F0F80201
:101BFC007B685B69DB00274913430B6015E0264BC0
:101C0C0000221A60FFF74CFC386108E0FFF748FC33
:101C1C0002463B69D31A022B01D903237AE11D4BEF
:101C2C001B6803F00203002BF0D17B681B6803F0E8
:101C3C000803002B3AD07B689B69002B19D0174BFB
:101C4C0001221A60FFF72CFC386108E0FFF728FC32
:101C5C0002463B69D31A022B01D903235AE10D4BDF
:101C6C005B6A03F00203002BF0D0012000F0A6FA0F
:101C7C001CE00A4B00221A60FFF712FC38610FE0DF
:101C8C00FFF70EFC02463B69D31A022B08D903233B
:101C9C0040E100BF0010024000004242800442427A
:101CAC009E4B5B6A03F00203002BE9D17B681B6837
:101CBC0003F00403002B00F0A6800023FB75974B68
:101CCC00DB6903F08053002B0DD1944BDB69934AF5
:101CDC0043F08053D361914BDB6903F08053BB60BD
:101CEC00BB680123FB758E4B1B6803F48073002BC0
:101CFC0018D18B4B1B688A4A43F480731360FFF72F
:101D0C00CFFB386108E0FFF7CBFB02463B69D31AE7
:101D1C00642B01D90323FDE0814B1B6803F4807312
:101D2C00002BF0D07B68DB68012B06D17B4B1B6A48
:101D3C007A4A43F0010313622DE07B68DB68002BC9
:101D4C000CD1764B1B6A754A23F001031362734B5B
:101D5C001B6A724A23F0040313621CE07B68DB6885
:101D6C00052B0CD16D4B1B6A6C4A43F004031362B8
:101D7C006A4B1B6A694A43F0010313620BE0674B21
:101D8C001B6A664A23F001031362644B1B6A634AA5
:101D9C0023F0040313627B68DB68002B15D0FFF77C
:101DAC007FFB38610AE0FFF77BFB02463B69D31AE5
:101DBC0041F28832934201D90323ABE0574B1B6AA3
:101DCC0003F00203002BEED014E0FFF769FB38613F
:101DDC000AE0FFF765FB02463B69D31A41F28832F1
:101DEC00934201D9032395E04C4B1B6A03F0020389
:101DFC00002BEED1FB7D012B05D1484BDB69474A0B
:101E0C0023F08053D3617B68DB69002B00F0818069
:101E1C00424B5B6803F00C03082B61D07B68DB69D9
:101E2C00022B46D13F4B00221A60FFF739FB386179
:101E3C0008E0FFF735FB02463B69D31A022B01D9A8
:101E4C00032367E0354B1B6803F00073002BF0D1C4
:101E5C007B681B6AB3F5803F08D1304B5B6823F479
:101E6C0000327B689B682D4913434B602B4B5B689E
:101E7C0023F474127B68196A7B685B6A0B432749ED
:101E8C0013434B60274B01221A60FFF709FB3861A3
:101E9C0008E0FFF705FB02463B69D31A022B01D978
:101EAC00032337E01D4B1B6803F00073002BF0D0AD
:101EBC002FE01C4B00221A60FFF7F2FA386108E0A1
:101ECC00FFF7EEFA02463B69D31A022B01D9032322
:101EDC0020E0124B1B6803F00073002BF0D118E0CC
:101EEC007B68DB69012B01D1012313E00B4B5B6891
:101EFC00FB60FB6803F480327B681B6A9A4206D154
:101F0C00FB6803F470127B685B6A9A4201D0012370
:101F1C0000E0002318461837BD4680BD0010024073
:101F2C00007000406000424280B584B000AF786021
:101F3C0039607B68002B01D10123D0E06A4B1B6810
:101F4C0003F007033A689A4210D9674B1B6823F0D9
:101F5C00070265493B6813430B60634B1B6803F036
:101F6C0007033A689A4201D00123B8E07B681B68EA
:101F7C0003F00203002B20D07B681B6803F00403E2
:101F8C00002B05D0594B5B68584A43F4E06353600F
:101F9C007B681B6803F00803002B05D0534B5B6870
:101FAC00524A43F460535360504B5B6823F0F00289
:101FBC007B689B684D4913434B607B681B6803F03F
:101FCC000103002B40D07B685B68012B07D1474B8A
:101FDC001B6803F40033002B15D101237FE07B68D1
:101FEC005B68022B07D1414B1B6803F00073002B7D
:101FFC0009D1012373E03D4B1B6803F00203002B56
:10200C0001D101236BE0394B5B6823F003027B6841
:10201C005B68364913434B60FFF742FAF8600AE0FD
:10202C00FFF73EFA0246FB68D31A41F2883293421C
:10203C0001D9032353E02D4B5B6803F00C027B6842
:10204C005B689B009A42EBD1274B1B6803F007039C
:10205C003A689A4210D2244B1B6823F0070222499B
:10206C003B6813430B60204B1B6803F007033A6873
:10207C009A4201D0012332E07B681B6803F0040311
:10208C00002B08D0194B5B6823F4E0627B68DB689B
:10209C00164913434B607B681B6803F00803002B45
:1020AC0009D0124B5B6823F460527B681B69DB0020
:1020BC000E4913434B6000F021F802460B4B5B6852
:1020CC001B0903F00F030A49CB5C22FA03F3094AFC
:1020DC001360094B1B681846FFF7A0F9002318463C
:1020EC001037BD4680BD00BF0020024000100240EA
:1020FC004C2A00080C0000201000002090B48AB07C
:10210C0000AF2A4B3C1D0FCB84E80F0040F201239B
:10211C003B800023FB610023BB6100237B62002317
:10212C007B6100233B62224B5B68FB61FB6903F024
:10213C000C03042B02D0082B03D02DE01D4B3B626B
:10214C002DE0FB699B0C03F00F0307F128021344ED
:10215C0013F8243C7B61FB6903F48033002B13D010
:10216C00134B5B685B0C03F0010307F1280213446B
:10217C0013F8283CBB617B690E4A02FB03F2BB6976
:10218C00B2FBF3F37B6204E07B690B4A02FB03F3C3
:10219C007B627B6A3B6202E0064B3B6200BF3B6AA0
:1021AC0018462837BD4690BC704700BF3C2A000833
:1021BC000010024000127A0000093D0080B485B086
:1021CC0000AF78600A4B1B680A4AA2FB03235B0A28
:1021DC007A6802FB03F3FB6000BFFB685A1EFA60CF
:1021EC00002BF9D100BF00BF1437BD4680BC70472F
:1021FC000C000020D34D621080B582B000AF786027
:10220C007B68002B01D1012341E07B6893F83D30C2
:10221C00DBB2002B06D17B68002283F83C20786867
:10222C00FFF764F87B68022283F83D207B681A680C
:10223C007B6804331946104600F06AFA7B68012269
:10224C0083F846207B68012283F83E207B680122BC
:10225C0083F83F207B68012283F840207B680122B1
:10226C0083F841207B68012283F842207B6801229D
:10227C0083F843207B68012283F844207B68012289
:10228C0083F845207B68012283F83D200023184603
:10229C000837BD4680BD000080B485B000AF7860C3
:1022AC007B6893F83D30DBB2012B01D0012335E084
:1022BC007B68022283F83D207B681B68DA687B68A8
:1022CC001B6842F00102DA607B681B68164A934275
:1022DC0009D07B681B68B3F1804F04D07B681B6806
:1022EC00124A934211D17B681B689B6803F0070369
:1022FC00FB60FB68062B10D07B681B681A687B6838
:10230C001B6842F001021A6007E07B681B681A68C0
:10231C007B681B6842F001021A60002318461437D0
:10232C00BD4680BC704700BF002C0140000400403B
:10233C0080B582B000AF78607B681B681B6903F0C6
:10234C000203022B22D17B681B68DB6803F00203BB
:10235C00022B1BD17B681B686FF002021A617B6831
:10236C0001221A777B681B689B6903F00303002B1F
:10237C0003D0786800F0B1F905E0786800F0A4F9B2
:10238C00786800F0B3F97B6800221A777B681B68C9
:10239C001B6903F00403042B22D17B681B68DB68E8
:1023AC0003F00403042B1BD17B681B686FF0040241
:1023BC001A617B6802221A777B681B689B6903F49D
:1023CC004073002B03D0786800F087F905E078683B
:1023DC0000F07AF9786800F089F97B6800221A77A6
:1023EC007B681B681B6903F00803082B22D17B68F0
:1023FC001B68DB6803F00803082B1BD17B681B6888
:10240C006FF008021A617B6804221A777B681B68DC
:10241C00DB6903F00303002B03D0786800F05DF94F
:10242C0005E0786800F050F9786800F05FF97B6897
:10243C0000221A777B681B681B6903F01003102BB2
:10244C0022D17B681B68DB6803F01003102B1BD1B7
:10245C007B681B686FF010021A617B6808221A7780
:10246C007B681B68DB6903F44073002B03D078682E
:10247C0000F033F905E0786800F026F9786800F090
:10248C0035F97B6800221A777B681B681B6903F09F
:10249C000103012B0ED17B681B68DB6803F0010381
:1024AC00012B07D17B681B686FF001021A617868F9
:1024BC00FEF70CFE7B681B681B6903F08003802B06
:1024CC000ED17B681B68DB6803F08003802B07D17F
:1024DC007B681B686FF080021A61786800F067FAFD
:1024EC007B681B681B6903F04003402B0ED17B6893
:1024FC001B68DB6803F04003402B07D17B681B682B
:10250C006FF040021A61786800F0F9F87B681B687C
:10251C001B6903F02003202B0ED17B681B68DB6842
:10252C0003F02003202B07D17B681B686FF020027F
:10253C001A61786800F032FA00BF0837BD4680BDDA
:10254C0080B584B000AF786039607B6893F83C301C
:10255C00012B01D10223B3E07B68012283F83C20DC
:10256C007B68022283F83D207B681B689B68FB60BC
:10257C00FB6823F07703FB60FB6823F47F43FB606D
:10258C007B681B68FA689A603B681B68B3F5005F50
:10259C003ED0B3F5005F00F28780B3F5805F00F0AA
:1025AC008580B3F5805F7FD8702B1AD0702B7BD8C9
:1025BC00602B50D0602B77D8502B3CD0502B73D83D
:1025CC00402B58D0402B6FD8302B64D0302B6BD88D
:1025DC00202B60D0202B67D8002B5CD0102B5AD02E
:1025EC0062E07B6818683B6899683B685A683B688E
:1025FC00DB6800F05CF97B681B689B68FB60FB6820
:10260C0043F07703FB607B681B68FA689A604EE0C6
:10261C007B6818683B6899683B685A683B68DB685C
:10262C0000F045F97B681B689A687B681B6842F46C
:10263C0080429A603BE07B6818683B6859683B684D
:10264C00DB681A4600F0BCF87B681B685021184602
:10265C0000F013F92BE07B6818683B6859683B68FD
:10266C00DB681A4600F0DAF87B681B6860211846B4
:10267C0000F003F91BE07B6818683B6859683B68FD
:10268C00DB681A4600F09CF87B681B6840211846F2
:10269C0000F0F3F80BE07B681A683B681B6819467E
:1026AC00104600F0EAF802E000BF00E000BF7B68D3
:1026BC00012283F83D207B68002283F83C20002314
:1026CC0018461037BD4680BD80B483B000AF78602B
:1026DC0000BF0C37BD4680BC704780B483B000AFE0
:1026EC00786000BF0C37BD4680BC704780B483B0A7
:1026FC0000AF786000BF0C37BD4680BC704780B41B
:10270C0083B000AF786000BF0C37BD4680BC70470B
:10271C0080B485B000AF786039607B681B68FB6063
:10272C007B68254A934207D07B68B3F1804F03D076
:10273C007B68224A934208D1FB6823F07003FB604C
:10274C003B685B68FA681343FB607B681A4A9342E8
:10275C0007D07B68B3F1804F03D07B68174A934254
:10276C0008D1FB6823F44073FB603B68DB68FA68B4
:10277C001343FB60FB6823F080023B685B691343E7
:10278C00FB607B68FA681A603B689A687B68DA625F
:10279C003B681A687B689A627B68074A934203D14C
:1027AC003B681A697B681A637B6801225A6100BF17
:1027BC001437BD4680BC7047002C0140000400401B
:1027CC0080B487B000AFF860B9607A60FB681B6AB0
:1027DC007B61FB681B6A23F00102FB681A62FB68D1
:1027EC009B693B613B6923F0F0033B617B681B01F8
:1027FC003A6913433B617B6923F00A037B617A6975
:10280C00BB6813437B61FB683A699A61FB687A6920
:10281C001A6200BF1C37BD4680BC704780B487B0BD
:10282C0000AFF860B9607A60FB681B6A23F0100295
:10283C00FB681A62FB689B697B61FB681B6A3B61E6
:10284C007B6923F470437B617B681B037A691343B8
:10285C007B613B6923F0A0033B61BB681B013A69B8
:10286C0013433B61FB687A699A61FB683A691A62A7
:10287C0000BF1C37BD4680BC704780B485B000AF2C
:10288C00786039607B689B68FB60FB6823F07003A1
:10289C00FB603A68FB68134343F00703FB607B68FB
:1028AC00FA689A6000BF1437BD4680BC704780B48C
:1028BC0087B000AFF860B9607A603B60FB689B68DA
:1028CC007B617B6923F47F437B613B681A027B68E5
:1028DC001A43BB6813437A6913437B61FB687A69BB
:1028EC009A6000BF1C37BD4680BC704780B485B071
:1028FC0000AF786039607B6893F83C30012B01D1D4
:10290C00022341E07B68012283F83C207B68022291
:10291C0083F83D207B681B685B68FB607B681B68E9
:10292C009B68BB60FB6823F07003FB603B681B6813
:10293C00FA681343FB607B681B68FA685A607B6813
:10294C001B68144A934209D07B681B68B3F1804F13
:10295C0004D07B681B68104A93420CD1BB6823F0EF
:10296C008003BB603B685B68BA681343BB607B68E1
:10297C001B68BA689A607B68012283F83D207B68EB
:10298C00002283F83C20002318461437BD4680BC37
:10299C00704700BF002C01400004004080B483B09D
:1029AC0000AF786000BF0C37BD4680BC704780B468
:1029BC0083B000AF786000BF0C37BD4680BC704759
:1029CC0070B500260C4D0D4C641BA410A64209D109
:1029DC0000F022F800260A4D0A4C641BA410A642F3
:1029EC0005D170BD55F8043B98470136EEE755F814
:1029FC00043B98470136F2E75C2A00085C2A000881
:102A0C005C2A0008602A000803460244934200D165
:102A1C00704703F8011BF9E7F8B500BFF8BC08BC18
:102A2C009E467047F8B500BFF8BC08BC9E46704780
:102A3C0002030405060708090A0B0C0D0E0F1010F3
:102A4C000000000000000000010203040607080952
:042A5C00310100083C
:042A60000D0100085C
:102A6400170000003B000000370000000024F400C1
:082A7400100000000100000049
:04000005080013B12B
:00000001FF
