:020000040800F2
:1000000000280020B118000841180008471800080F
:100010004D18000853180008591800080000000087
:100020000000000000000000000000005F18000851
:100030006B180008000000007718000883180008FB
:10004000F9180008F9180008F9180008F91800084C
:10005000F9180008F9180008F9180008F91800083C
:10006000F9180008F9180008F9180008F91800082C
:10007000F9180008F9180008F9180008F91800081C
:10008000F9180008F9180008F9180008F91800080C
:10009000F9180008F9180008F9180008F9180008FC
:1000A000F9180008F9180008F9180008F9180008EC
:1000B00091180008F918000800000000F91800085D
:1000C000F91800080000000000000000F9180008FE
:1000D00000000000F9180008F918000800000000EE
:1000E000F9180008F9180008F918000800000000C5
:1000F0000000000000000000000000000000000000
:0C01000000000000000000005FF808F1A3
:10010C0010B5054C237833B9044B13B10448AFF345
:10011C0000800123237010BD1C0000200000000093
:10012C00502F000808B5034B1BB103490348AFF32C
:10013C00008008BD0000000020000020502F0008A7
:10014C0080B582B000AF78607B68022B15D07B68DD
:10015C00022B18DC7B68002B03D07B68012B06D0AC
:10016C0011E002210A4801F0ADFE03460CE0042127
:10017C00074801F0A7FE034606E00821044801F0F9
:10018C00A1FE034600E0012318460837BD4680BD9A
:10019C000008014080B483B000AF7860044A7B68EB
:1001AC00012142F8231000BF0C37BD4680BC7047BC
:1001BC004400002080B483B000AF7860044A7B68B0
:1001CC00012142F8231000BF0C37BD4680BC70479C
:1001DC005000002080B582B000AF00237B606BE044
:1001EC00394A7B6813441978384A7B6813440A46A9
:1001FC001A70374A7B6813441978334A7B68134466
:10020C000A461A707868FFF79BFF03461946304A76
:10021C007B6813440A461A702C4A7B6813441A787C
:10022C0029497B680B441B789A4242D1284A7B6847
:10023C0013441A7824497B680B441B789A4238D1B2
:10024C00244A7B6813441A7820497B680B441B783A
:10025C009A4217D01D4A7B68134419781D4A7B6853
:10026C0013440A461A70194A7B6813441B78002BF6
:10027C001FD17868FFF78EFF174A7B68642142F81C
:10028C00231016E0144A7B6852F823305A1E124988
:10029C007B6841F823200D4A7B6813441B78002BA4
:1002AC0007D17868FFF786FF0B4A7B68642142F818
:1002BC0023107B6801337B607B68022B90DD00BFD1
:1002CC0000BF0837BD4680BD380000203C00002030
:1002DC0040000020000000205C00002080B483B0AF
:1002EC0000AF0346FB71FB79022B01D900230DE013
:1002FC00FB79094A52F82330012B06D1FB79064AC7
:10030C00002142F82310012300E0002318460C378B
:10031C00BD4680BC704700BF4400002080B500AFD4
:10032C005E4B1B68013B032B00F2AF8001A252F81D
:10033C0023F000BF5103000877030008D70300081F
:10034C0037040008002000F0D3FB544B02221A6043
:10035C00534B1B68642202FB03F3184601F05AF955
:10036C004F4B1B684F4A136096E000F0CFFF002004
:10037C0000F08CFA4B4B1B681946002000F0A2FFD2
:10038C00494B1B68012B0ED1444B03221A60474B7F
:10039C001B68642202FB03F3184601F03BF9434B44
:1003AC001B68404A13600020FFF798FF0346012B9F
:1003BC006DD13A4B4FF0FF321A603D4B4FF0FF328C
:1003CC001A603C4B01221A6061E000F09FFF002094
:1003DC0000F090FA334B1B681946002000F072FFB6
:1003EC00314B1B68012B0ED12C4B04221A60324B63
:1003FC001B68642202FB03F3184601F00BF92E4B29
:10040C001B68284A13600020FFF768FF0346012B86
:10041C003FD1224B4FF0FF321A60254B4FF0FF3289
:10042C001A60244B01221A6033E000F06FFF0020A9
:10043C0000F094FA1B4B1B681946002000F042FF99
:10044C00194B1B68012B0ED1144B02221A60144B52
:10045C001B68642202FB03F3184601F0DBF8104B17
:10046C001B68104A13600020FFF738FF0346012B6E
:10047C0011D10A4B4FF0FF321A600D4B4FF0FF3287
:10048C001A600C4B01221A6005E000BF04E000BFAB
:10049C0002E000BF00E000BF00BF80BD680000208C
:1004AC0004000020740000207C00002008000020C4
:1004BC006C000020700000200C00002080B500AF04
:1004CC00734B1B68013B182B00F2D98001A252F828
:1004DC0023F000BF450500088B0600088B060008BA
:1004EC008B0600088B0600088B0600088B0600089C
:1004FC008B0600088B0600088B0600088B0600088C
:10050C008B0600088B0600088B0600088B0600087B
:10051C008B0600088B0600088B0600088B0600086B
:10052C008B0600088B0600086B050008CB0500083D
:10053C008B0600082B060008012000F0D9FA544B5A
:10054C0017221A60534B1B68642202FB03F31846F4
:10055C0001F074F84F4B1B684F4A136096E000F0A3
:10056C00D5FE012000F092F94B4B1B681946012077
:10057C0000F0A8FE494B1B68012B0ED1444B1722EF
:10058C001A60444B1B68642202FB03F3184601F00B
:10059C0055F8404B1B68404A13600020FFF79EFE45
:1005AC000346012B6DD13E4B4FF0FF321A60384B96
:1005BC004FF0FF321A603B4B01221A6061E000F0F1
:1005CC00A5FE012000F096F9334B1B68194601205B
:1005DC0000F078FE314B1B68012B0ED12C4B1922ED
:1005EC001A60314B1B68642202FB03F3184601F0BE
:1005FC0025F82D4B1B68284A13600020FFF76EFE70
:10060C000346012B3FD1264B4FF0FF321A60204B93
:10061C004FF0FF321A60234B01221A6033E000F0D6
:10062C0075FE012000F09AF91B4B1B68194601203E
:10063C0000F048FE194B1B68012B0ED1144B1622EF
:10064C001A601A4B1B68642202FB03F3184600F075
:10065C00F5FF164B1B68104A13600020FFF73EFE97
:10066C000346012B11D10E4B4FF0FF321A60084B91
:10067C004FF0FF321A600B4B01221A6005E000BFED
:10068C0004E000BF02E000BF00E000BF00BF80BD7F
:10069C006C0000200800002078000020840000205E
:1006AC0068000020700000200C00002004000020D6
:1006BC0080B500AF6F4B1B682C2B00F092802C2B5D
:1006CC0000F3CF802B2B50D02B2B00F3CA80012BA7
:1006DC0002D02A2B0CD0C4E0002000F009FA012033
:1006EC0000F006FA634B2A221A60322000F0CEFF8B
:1006FC0000F028FE0120FFF7F1FD0346012B0BD182
:10070C005D4B1B6801335C4A13605B4B1B68632BAE
:10071C0002DD594B01221A60574B1B68184600F03A
:10072C001BFA544B1B68283B184600F0D5FB0020E5
:10073C00FFF7D4FD0346012B05D14E4B2B221A603B
:10074C00322000F0A3FF0220FFF7C8FD0346012B67
:10075C0040F08980494B01221A60494B01221A60F2
:10076C00444B4FF0FF321A607DE000F013FE454B16
:10077C001B68184600F0F0F93E4B1B68283B1846E6
:10078C0000F0AAFB0120FFF7A9FD0346012B0BD1BA
:10079C003C4B1B6801333B4A13603A4B1B68632B81
:1007AC0002DD384B01221A600020FFF797FD03464B
:1007BC00012B05D12F4B2C221A60322000F066FF42
:1007CC000220FFF78BFD0346012B4ED12B4B012250
:1007DC001A602B4B01221A60264B4FF0FF321A6025
:1007EC0043E000F0C3FD284B1B68184600F0B4F939
:1007FC00204B1B68283B184600F06EFB0120FFF7CE
:10080C006DFD0346012B0BD11F4B1B6801331E4A98
:10081C0013601D4B1B68632B02DD1B4B01221A60FE
:10082C000020FFF75BFD0346012B09D1134B01227E
:10083C001A60134B01221A600E4B4FF0FF321A60F4
:10084C000220FFF74BFD0346012B10D10B4B01226D
:10085C001A600B4B01221A60064B4FF0FF321A60E4
:10086C0005E000BF04E000BF02E000BF00E000BFF5
:10087C0000BF80BD70000020040000206800002034
:10088C006C0000200C0000200800002080B582B015
:10089C0000AF78607B68002B03D07B68012B10D0F5
:1008AC0021E000221021124801F023FB012220211B
:1008BC000F4801F01EFB012240210D4801F019FBED
:1008CC0011E0002280210A4801F013FB01224FF4B1
:1008DC008071074801F00DFB01224FF400710448B0
:1008EC0001F007FB00BF00BF0837BD4680BD00BF4D
:1008FC000008014080B582B000AF78607B68002BA7
:10090C0003D07B68012B10D021E00122102112486A
:10091C0001F0EFFA012220210F4801F0EAFA00223F
:10092C0040210D4801F0E5FA11E0012280210A482E
:10093C0001F0DFFA01224FF48071074801F0D9FA77
:10094C0000224FF40071044801F0D3FA00BF00BF3D
:10095C000837BD4680BD00BF0008014080B582B09D
:10096C0000AF78607B68002B03D07B68012B10D024
:10097C0021E001221021124801F0BBFA00222021B3
:10098C000F4801F0B6FA012240210D4801F0B1FAEE
:10099C0011E0012280210A4801F0ABFA00224FF449
:1009AC008071074801F0A5FA01224FF40071044848
:1009BC0001F09FFA00BF00BF0837BD4680BD00BFE5
:1009CC000008014080B582B000AF78607B68002BD6
:1009DC0003D07B68012B0FD01FE01021114801F0D0
:1009EC00A0FA012220210F4801F083FA01224021B4
:1009FC000C4801F07EFA10E080210A4801F091FACF
:100A0C0001224FF48071074801F073FA01224FF470
:100A1C000071044801F06DFA00BF00BF0837BD46F5
:100A2C0080BD00BF0008014080B582B000AF786087
:100A3C007B68002B03D07B68012B0FD01FE00122B9
:100A4C001021114801F055FA40210F4801F069FAC4
:100A5C00012220210C4801F04CFA10E001228021E7
:100A6C00094801F046FA4FF40071074801F059FAB1
:100A7C0001224FF48071044801F03BFA00BF00BF23
:100A8C000837BD4680BD00BF0008014080B582B06C
:100A9C0000AF78607B68002B03D07B68012B0FD0F4
:100AAC001FE001221021114801F023FA01224021FC
:100ABC000E4801F01EFA20210C4801F032FA10E029
:100ACC0001228021094801F014FA01224FF400712F
:100ADC00064801F00EFA4FF48071044801F021FA37
:100AEC0000BF00BF0837BD4680BD00BF00080140F5
:100AFC0080B582B000AF78607B68002B03D07B6838
:100B0C00012B10D021E001221021124801F0F1F943
:100B1C00012220210F4801F0ECF9012240210D485F
:100B2C0001F0E7F911E0012280210A4801F0E1F916
:100B3C0001224FF48071074801F0DBF901224FF4D8
:100B4C000071044801F0D5F900BF00BF0837BD465D
:100B5C0080BD00BF0008014080B582B000AF786056
:100B6C007968C64B83FB01239A10CB17D21A134614
:100B7C009B0013445B00CA1A092A00F2838101A36B
:100B8C0053F822F0B90B0008010C0008490C0008BE
:100B9C00910C0008D90C0008210D0008690D000803
:100BAC00B10D0008F90D0008410E000800220121CA
:100BBC00B34801F09EF900220221B14801F099F9E5
:100BCC0000220421AE4801F094F900220821AC481F
:100BDC0001F08FF900221021A94801F08AF90022B6
:100BEC002021A74801F085F901224021A44801F0F9
:100BFC0080F96BE101220121A14801F07AF9002270
:100C0C0002219F4801F075F9002204219C4801F053
:100C1C0070F9012208219A4801F06BF90122102188
:100C2C00974801F066F901222021954801F061F9FD
:100C3C0001224021924801F05CF947E10022012198
:100C4C008F4801F056F9002202218D4801F051F92C
:100C5C00012204218A4801F04CF90022082188481D
:100C6C0001F047F900221021854801F042F90122D8
:100C7C002021834801F03DF900224021804801F0F9
:100C8C0038F923E1002201217D4801F032F90022DC
:100C9C0002217B4801F02DF900220421784801F053
:100CAC0028F900220821764801F023F901221021AD
:100CBC00734801F01EF901222021714801F019F945
:100CCC00002240216E4801F014F9FFE001220121BD
:100CDC006B4801F00EF900220221694801F009F974
:100CEC0000220421664801F004F90122082164481D
:100CFC0001F0FFF801221021614801F0FAF80022FE
:100D0C0020215F4801F0F5F8002240215C4801F0F9
:100D1C00F0F8DBE000220121594801F0EAF8012249
:100D2C000221574801F0E5F800220421544801F053
:100D3C00E0F800220821524801F0DBF801221021D2
:100D4C004F4801F0D6F8002220214D4801F0D1F88F
:100D5C00002240214A4801F0CCF8B7E000220121E2
:100D6C00474801F0C6F801220221454801F0C1F8BC
:100D7C0000220421424801F0BCF80022082140481E
:100D8C0001F0B7F8002210213D4801F0B2F8002222
:100D9C0020213B4801F0ADF800224021384801F0F9
:100DAC00A8F893E000220121354801F0A2F80022B6
:100DBC000221334801F09DF800220421304801F053
:100DCC0098F8012208212E4801F093F801221021F5
:100DDC002B4801F08EF801222021294801F089F8D6
:100DEC0001224021264801F084F86FE00022012105
:100DFC00234801F07EF800220221214801F079F805
:100E0C00002204211E4801F074F8002208211C481D
:100E1C0001F06FF800221021194801F06AF8002245
:100E2C002021174801F065F800224021144801F0F8
:100E3C0060F84BE000220121114801F05AF8002221
:100E4C0002210F4801F055F8002204210C4801F052
:100E5C0050F8002208210A4801F04BF80122102119
:100E6C00074801F046F800222021054801F041F81E
:100E7C0000224021024801F03CF827E067666666D4
:100E8C00000C014001220121124801F032F801222C
:100E9C000221104801F02DF8012204210D4801F027
:100EAC0028F8012208210B4801F023F80122102117
:100EBC00084801F01EF801222021064801F019F81B
:100ECC0001224021034801F014F800BF00BF08378D
:100EDC00BD4680BD000C014080B582B000AF78608B
:100EEC007B68092B00F2BE8101A252F823F000BFEF
:100EFC00250F0008790F0008CD0F000821100008FD
:100F0C0075100008C91000081D11000871110008A7
:100F1C00C51100081912000800228021D04800F0E9
:100F2C00E8FF00224FF48071CD4800F0E2FF002270
:100F3C004FF40071CA4800F0DCFF00224FF48061CE
:100F4C00C74800F0D6FF00224FF40061C44800F0FF
:100F5C00D0FF00224FF48051C14800F0CAFF01229B
:100F6C004FF40051BE4800F0C4FFA5E101228021DE
:100F7C00BB4800F0BEFF00224FF48071B84800F06F
:100F8C00B8FF00224FF40071B54800F0B2FF012207
:100F9C004FF48061B24800F0ACFF01224FF40061C5
:100FAC00AF4800F0A6FF01224FF48051AC4800F08E
:100FBC00A0FF01224FF40051A94800F09AFF7BE1F9
:100FCC0000228021A64800F094FF00224FF480718B
:100FDC00A34800F08EFF01224FF40071A04800F0EE
:100FEC0088FF00224FF480619D4800F082FF0022B0
:100FFC004FF400619A4800F07CFF01224FF48051BD
:10100C00974800F076FF00224FF40051944800F00E
:10101C0070FF51E100228021914800F06AFF00220C
:10102C004FF480718E4800F064FF00224FF4007181
:10103C008B4800F05EFF00224FF48061884800F07E
:10104C0058FF01224FF40061854800F052FF012245
:10105C004FF48051824800F04CFF00224FF40051B5
:10106C007F4800F046FF27E1012280217C4800F0F8
:10107C0040FF00224FF48071794800F03AFF0022C3
:10108C004FF40071764800F034FF01224FF4806178
:10109C00734800F02EFF01224FF40061704800F0FD
:1010AC0028FF00224FF480516D4800F022FF0022EF
:1010BC004FF400516A4800F01CFFFDE00022802133
:1010CC00674800F016FF01224FF48071644800F06D
:1010DC0010FF00224FF40071614800F00AFF00225B
:1010EC004FF480615E4800F004FF01224FF4006170
:1010FC005B4800F0FEFE00224FF48051584800F08F
:10110C00F8FE00224FF40051554800F0F2FED3E0F7
:10111C0000228021524800F0ECFE01224FF4807135
:10112C004F4800F0E6FE00224FF400714C4800F0EE
:10113C00E0FE00224FF48061494800F0DAFE002204
:10114C004FF40061464800F0D4FE00224FF4805169
:10115C00434800F0CEFE00224FF40051404800F00E
:10116C00C8FEA9E0002280213D4800F0C2FE00220A
:10117C004FF480713A4800F0BCFE00224FF400712D
:10118C00374800F0B6FE01224FF48061344800F07D
:10119C00B0FE01224FF40061314800F0AAFE01229A
:1011AC004FF480512E4800F0A4FE01224FF4005160
:1011BC002B4800F09EFE7FE000228021284800F0A2
:1011CC0098FE00224FF48071254800F092FE002218
:1011DC004FF40071224800F08CFE00224FF4806125
:1011EC001F4800F086FE00224FF400611C4800F0FE
:1011FC0080FE00224FF48051194800F07AFE002244
:10120C004FF40051164800F074FE55E00022802186
:10121C00134800F06EFE00224FF48071104800F06D
:10122C0068FE00224FF400710D4800F062FE0022AF
:10123C004FF480610A4800F05CFE01224FF400611B
:10124C00074800F056FE00224FF48051044800F08D
:10125C0050FE00224FF40051014800F04AFE2BE0F2
:10126C00000C014001228021154800F042FE0122B1
:10127C004FF48071124800F03CFE01224FF40071D3
:10128C000F4800F036FE01224FF480610C4800F04C
:10129C0030FE01224FF40061094800F02AFE0122C1
:1012AC004FF48051064800F024FE01224FF4005107
:1012BC00034800F01EFE00BF00BF0837BD4680BDCE
:1012CC00000C014080B582B000AF786039607B685B
:1012DC00002B03D07B68012B04D007E03868FFF7A4
:1012EC003BFC03E03868FFF7F7FD00BF00BF083791
:1012FC00BD4680BD80B582B000AF78600A217868A9
:10130C00FFF7E0FF00BF0837BD4680BD80B500AFDA
:10131C00094B1B68012B0CD1642000F0A3F9074B7F
:10132C001B68013B054A1360054B1B68013B044AD3
:10133C00136000BF80BD00BF8C0000207400002033
:10134C007800002080B500AF074B1B68012B08D13B
:10135C00322000F09BF90020FFF734FB0120FFF74F
:10136C0031FB00BF80BD00BF9400002080B500AFF2
:10137C00074B1B68012B08D1322000F087F90020A5
:10138C00FFF752FB0120FFF74FFB00BF80BD00BFF2
:10139C009400002080B500AF074B1B68012B08D1CF
:1013AC00322000F073F90020FFF770FB0120FFF7EB
:1013BC006DFB00BF80BD00BF9400002080B500AF66
:1013CC0000F096FA00F02AF800F0B0F800F062F89D
:1013DC000F4801F0F7F90F4B01221A600E4B012256
:1013EC001A600020FFF784FB0120FFF781FB00202F
:1013FC00FFF780FF0120FFF77DFF642000F032F93A
:10140C00FEF78CFFFFF75AF8FFF752F9F8E700BF29
:10141C00A4000020680000206C00002080B590B073
:10142C0000AF07F1180328220021184601F082FDB5
:10143C003B1D00221A605A609A60DA601A6102231E
:10144C00BB610123BB621023FB6200237B6307F1AA
:10145C001803184600F07EFD0346002B01D000F067
:10146C00D3F80F237B600023BB600023FB600023B9
:10147C003B6100237B613B1D0021184600F0EAFF15
:10148C000346002B01D000F0BFF800BF4037BD462B
:10149C0080BD000080B586B000AF07F108030022C4
:1014AC001A605A609A60DA603B4600221A605A60F1
:1014BC001D4B4FF080421A601B4B41F63F725A6035
:1014CC00194B00229A60184B0922DA60164B002245
:1014DC001A61154B00229A61134801F023F9034657
:1014EC00002B01D000F090F84FF48053BB6007F153
:1014FC00080319460C4801F0B9FA0346002B01D039
:10150C0000F082F800233B6000237B603B461946C9
:10151C00054801F081FC0346002B01D000F074F863
:10152C0000BF1837BD4680BDA400002080B586B032
:10153C0000AF07F1080300221A605A609A60DA6063
:10154C00284B9B69274A43F004039361254B9B6905
:10155C0003F004037B607B68224B9B69214A43F0B8
:10156C00080393611F4B9B6903F008033B603B68C6
:10157C0000224FF47C711C4800F0BBFC002243F6A7
:10158C00FF711A4800F0B5FC0E23BB600023FB6012
:10159C0001233B6107F108031946134800F018FBBF
:1015AC004FF47C73BB600123FB6000233B6102237F
:1015BC007B6107F1080319460B4800F009FB43F661
:1015CC00FF73BB600123FB6000233B6102237B6143
:1015DC0007F108031946054800F0FAFA00BF18375E
:1015EC00BD4680BD0010024000080140000C0140C7
:1015FC0080B582B000AF7860FEF7ECFD00F05AF8D1
:10160C0000BF0837BD4680BD80B400AF72B600BFC6
:10161C00FEE7000080B483B000AF7860054A7B68B9
:10162C001360054B00221A6000BF0C37BD4680BC0E
:10163C00704700BF800000207C00002080B483B085
:10164C0000AF7860054A7B681360054B00221A6076
:10165C0000BF0C37BD4680BC704700BF880000201F
:10166C008400002080B483B000AF7860054A7B68AA
:10167C001360054B00221A6000BF0C37BD4680BCBE
:10168C00704700BF900000208C00002080B483B015
:10169C0000AF7860054A7B681360054B00221A6026
:1016AC0000BF0C37BD4680BC704700BF98000020BF
:1016BC009400002080B400AF294B1B68002B0BDD7D
:1016CC00274B1B68013B264A1360254B1B68002BDC
:1016DC0002DC244B01221A60234B1B68002B0BDD10
:1016EC00214B1B68013B204A13601F4B1B68002BCE
:1016FC0002DC1E4B01221A601D4B1B68002B0BDDFC
:10170C001B4B1B68013B1A4A1360194B1B68002BBF
:10171C0002DC184B01221A60174B1B68002B0BDDE7
:10172C00154B1B68013B144A1360134B1B68002BB1
:10173C0002DC124B01221A60114B1B68002B0BDDD3
:10174C000F4B1B68013B0E4A13600D4B1B68002BA3
:10175C0002DC0C4B01221A6000BFBD4680BC7047F6
:10176C00800000207C0000208800002084000020E5
:10177C00900000208C000020980000209400002095
:10178C00A00000209C00002080B485B000AF154B59
:10179C009B69144A43F001039361124B9B6903F05C
:1017AC000103BB60BB680F4BDB690E4A43F08053EF
:1017BC00D3610C4BDB6903F080537B607B680A4B75
:1017CC005B68FB60FB6823F0E063FB60FB6843F045
:1017DC008063FB60044AFB68536000BF1437BD464E
:1017EC0080BC7047001002400000014080B584B0FE
:1017FC0000AF78607B681B68B3F1804F13D10C4B42
:10180C00DB690B4A43F00103D361094BDB6903F03D
:10181C000103FB60FB68002200211C2000F0A1F9F1
:10182C001C2000F0BAF900BF1037BD4680BD00BFC8
:10183C000010024080B400AFFEE780B400AFFEE7BA
:10184C0080B400AFFEE780B400AFFEE780B400AF19
:10185C00FEE780B400AF00BFBD4680BC704780B4CB
:10186C0000AF00BFBD4680BC704780B400AF00BF66
:10187C00BD4680BC704780B500AF00F07FF800BF5C
:10188C0080BD000080B500AF024800F0E7FF00BF4C
:10189C0080BD00BFA400002080B400AF00BFBD46D7
:1018AC0080BC70470C480D490D4A002302E0D45807
:1018BC00C4500433C4188C42F9D30A4A0A4C00238E
:1018CC0001E013600432A242FBD3FFF7E5FF01F005
:1018DC000DFBFFF773FD7047000000201C0000207B
:1018EC00902F00081C000020F0000020FEE70000F4
:1018FC0080B500AF084B1B68074A43F01003136018
:10190C00032000F023F90F2000F008F8FFF73CFF4C
:10191C000023184680BD00BF0020024080B582B075
:10192C0000AF7860124B1A68124B1B7819464FF4B3
:10193C007A73B3FBF1F3B2FBF3F3184600F03BF907
:10194C000346002B01D001230EE07B680F2B0AD835
:10195C00002279684FF0FF3000F003F9064A7B68EB
:10196C001360002300E0012318460837BD4680BDF4
:10197C0010000020180000201400002080B400AFDC
:10198C00054B1B781A46054B1B681344034A13601E
:10199C0000BFBD4680BC704718000020EC00002042
:1019AC0080B400AF024B1B681846BD4680BC704724
:1019BC00EC00002080B485B000AF78607B6803F049
:1019CC000703FB600C4BDB68BB60BA684FF6FF0388
:1019DC001340BB60FB681A02BB68134343F0BF6340
:1019EC0043F40033BB60044ABB68D36000BF1437B8
:1019FC00BD4680BC704700BF00ED00E080B400AF76
:101A0C00044BDB681B0A03F007031846BD4680BC79
:101A1C00704700BF00ED00E080B483B000AF034618
:101A2C00FB7197F90730002B0BDBFB7903F01F02DE
:101A3C00064997F907305B09012000FA02F241F8D8
:101A4C00232000BF0C37BD4680BC704700E100E08E
:101A5C0080B483B000AF03463960FB7197F907304F
:101A6C00002B0ADB3B68DAB20C4997F907301201FC
:101A7C00D2B20B4483F800230AE03B68DAB208497F
:101A8C00FB7903F00F03043B1201D2B20B441A761C
:101A9C0000BF0C37BD4680BC704700BF00E100E0C2
:101AAC0000ED00E080B489B000AFF860B9607A60F6
:101ABC00FB6803F00703FB61FB69C3F10703042B0D
:101ACC0028BF0423BB61FB690433062B02D9FB69D5
:101ADC00033B00E000237B614FF0FF32BB6902FA4D
:101AEC0003F3DA43BB681A407B699A404FF0FF312D
:101AFC007B6901FA03F3D9437B680B401343184607
:101B0C002437BD4680BC704780B582B000AF78608A
:101B1C007B68013BB3F1807F01D301230FE00A4ABC
:101B2C007B68013B53600F214FF0FF30FFF790FFB4
:101B3C00054B00229A60044B07221A6000231846BA
:101B4C000837BD4680BD00BF10E000E080B582B014
:101B5C0000AF78607868FFF72DFF00BF0837BD46EF
:101B6C0080BD80B586B000AF0346B9607A60FB7368
:101B7C0000237B61FFF742FF78617A68B968786966
:101B8C00FFF790FF024697F90F3011461846FFF702
:101B9C005FFF00BF1837BD4680BD80B582B000AF77
:101BAC000346FB7197F907301846FFF735FF00BF66
:101BBC000837BD4680BD80B582B000AF78607868CC
:101BCC00FFF7A2FF034618460837BD4680BD00004C
:101BDC0080B48BB000AF7860396000237B62002347
:101BEC003B6248E101227B6A02FA03F3FB613B682A
:101BFC001B68FA691340BB61BA69FB699A4240F0F1
:101C0C0037813B685B68A34A93425ED0A14A9342FA
:101C1C0075D8A14A934258D09F4A93426FD89F4A95
:101C2C00934252D09D4A934269D89D4A93424CD0DC
:101C3C009B4A934263D89B4A934246D0994A93421B
:101C4C005DD8122B2AD8122B59D801A252F823F0A6
:101C5C00D71C0008B11C0008C31C0008051D000897
:101C6C000B1D00080B1D00080B1D00080B1D0008A8
:101C7C000B1D00080B1D00080B1D00080B1D000898
:101C8C000B1D00080B1D00080B1D00080B1D000888
:101C9C000B1D0008B91C0008CD1C0008824A934299
:101CAC0013D02CE03B68DB683B6229E03B68DB68C7
:101CBC0004333B6224E03B68DB6808333B621FE083
:101CCC003B68DB680C333B621AE03B689B68002B7B
:101CDC0002D104233B6213E03B689B68012B05D1C6
:101CEC0008233B627B68FA691A6109E008233B62AE
:101CFC007B68FA695A6103E000233B6200E000BF95
:101D0C00BB69FF2B01D87B6801E07B6804337B61E6
:101D1C00BB69FF2B02D87B6A9B0002E07B6A083B05
:101D2C009B003B617B691A680F213B6901FA03F345
:101D3C00DB431A40396A3B6901FA03F31A437B69A6
:101D4C001A603B685B6803F08053002B00F09080B6
:101D5C00564B9B69554A43F001039361534B9B6966
:101D6C0003F00103BB60BB68514A7B6A9B080233DA
:101D7C0052F82330FB607B6A03F003039B000F22B5
:101D8C0002FA03F3DB43FA681340FB607B68494AB1
:101D9C0093420DD07B68484A934207D07B68474AF0
:101DAC00934201D1022304E0032302E0012300E06B
:101DBC0000237A6A02F0030292009340FA681343FC
:101DCC00FB603B497B6A9B080233FA6841F823208D
:101DDC003B685B6803F48033002B06D0384B1A68E1
:101DEC003749BB6913430B6006E0354B1A68BB6976
:101DFC00DB43334913400B603B685B6803F40033EF
:101E0C00002B06D02E4B5A682D49BB6913434B60EF
:101E1C0006E02B4B5A68BB69DB43294913404B60E6
:101E2C003B685B6803F48013002B06D0244B9A6844
:101E3C002349BB6913438B6006E0214B9A68BB694D
:101E4C00DB431F4913408B603B685B6803F4001352
:101E5C00002B06D01A4BDA681949BB691343CB60C7
:101E6C0006E0174BDA68BB69DB4315491340CB60BE
:101E7C007B6A01337B623B681A687B6A22FA03F344
:101E8C00002B7FF4AFAE00BF00BF2C37BD4680BC2B
:101E9C00704700BF0000321000003110000022100B
:101EAC000000211000001210000011100010024060
:101EBC000000014000080140000C014000100140EE
:101ECC000004014080B485B000AF78600B467B8085
:101EDC007B689A687B881340002B02D00123FB732C
:101EEC0001E00023FB73FB7B18461437BD4680BC16
:101EFC00704780B483B000AF78600B467B8013468C
:101F0C007B707B78002B03D07A887B681A6103E0A6
:101F1C007B881A047B681A6100BF0C37BD4680BCF5
:101F2C00704780B485B000AF78600B467B807B68CF
:101F3C00DB68FB607A88FB6813401A04FB68D943A2
:101F4C007B880B401A437B681A6100BF1437BD466F
:101F5C0080BC704780B586B000AF78607B68002B82
:101F6C0001D101236CE27B681B6803F00103002B99
:101F7C0000F08780924B5B6803F00C03042B0CD0B1
:101F8C008F4B5B6803F00C03082B12D18C4B5B68F6
:101F9C0003F48033B3F5803F0BD1894B1B6803F4FA
:101FAC000033002B6CD07B685B68002B68D101235D
:101FBC0046E27B685B68B3F5803F06D1804B1B68BB
:101FCC007F4A43F4803313602EE07B685B68002B00
:101FDC000CD17B4B1B687A4A23F480331360784B0B
:101FEC001B68774A23F4802313601DE07B685B68D1
:101FFC00B3F5A02F0CD1724B1B68714A43F48023AC
:10200C0013606F4B1B686E4A43F4803313600BE014
:10201C006B4B1B686A4A23F480331360684B1B6854
:10202C00674A23F4802313607B685B68002B13D012
:10203C00FFF7B6FC386108E0FFF7B2FC02463B69DB
:10204C00D31A642B01D90323FAE15D4B1B6803F40B
:10205C000033002BF0D014E0FFF7A2FC386108E04D
:10206C00FFF79EFC02463B69D31A642B01D903236C
:10207C00E6E1534B1B6803F40033002BF0D100E076
:10208C0000BF7B681B6803F00203002B63D04C4B32
:10209C005B6803F00C03002B0BD0494B5B6803F01F
:1020AC000C03082B1CD1464B5B6803F48033002BCC
:1020BC0016D1434B1B6803F00203002B05D07B6841
:1020CC001B69012B01D00123BAE13D4B1B6823F0A6
:1020DC00F8027B685B69DB00394913430B603AE01B
:1020EC007B681B69002B20D0364B01221A60FFF74E
:1020FC0057FC386108E0FFF753FC02463B69D31AE2
:10210C00022B01D903239BE12D4B1B6803F0020327
:10211C00002BF0D02A4B1B6823F0F8027B685B691C
:10212C00DB00274913430B6015E0264B00221A6095
:10213C00FFF736FC386108E0FFF732FC02463B69DA
:10214C00D31A022B01D903237AE11D4B1B6803F030
:10215C000203002BF0D17B681B6803F00803002BF3
:10216C003AD07B689B69002B19D0174B01221A605F
:10217C00FFF716FC386108E0FFF712FC02463B69DA
:10218C00D31A022B01D903235AE10D4B5B6A03F0DE
:10219C000203002BF0D0012000F0A6FA1CE00A4B41
:1021AC0000221A60FFF7FCFB38610FE0FFF7F8FB29
:1021BC0002463B69D31A022B08D9032340E100BF26
:1021CC000010024000004242800442429E4B5B6A77
:1021DC0003F00203002BE9D17B681B6803F00403B6
:1021EC00002B00F0A6800023FB75974BDB6903F0F6
:1021FC008053002B0DD1944BDB69934A43F08053F1
:10220C00D361914BDB6903F08053BB60BB68012346
:10221C00FB758E4B1B6803F48073002B18D18B4B12
:10222C001B688A4A43F480731360FFF7B9FB38616B
:10223C0008E0FFF7B5FB02463B69D31A642B01D9C2
:10224C000323FDE0814B1B6803F48073002BF0D05B
:10225C007B68DB68012B06D17B4B1B6A7A4A43F007
:10226C00010313622DE07B68DB68002B0CD1764BED
:10227C001B6A754A23F001031362734B1B6A724A83
:10228C0023F0040313621CE07B68DB68052B0CD184
:10229C006D4B1B6A6C4A43F0040313626A4B1B6A56
:1022AC00694A43F0010313620BE0674B1B6A664AF1
:1022BC0023F001031362644B1B6A634A23F004038B
:1022CC0013627B68DB68002B15D0FFF769FB386164
:1022DC000AE0FFF765FB02463B69D31A41F28832EC
:1022EC00934201D90323ABE0574B1B6A03F0020363
:1022FC00002BEED014E0FFF753FB38610AE0FFF738
:10230C004FFB02463B69D31A41F28832934201D902
:10231C00032395E04C4B1B6A03F00203002BEED118
:10232C00FB7D012B05D1484BDB69474A23F08053D9
:10233C00D3617B68DB69002B00F08180424B5B68CA
:10234C0003F00C03082B61D07B68DB69022B46D1B0
:10235C003F4B00221A60FFF723FB386108E0FFF7C0
:10236C001FFB02463B69D31A022B01D9032367E0FA
:10237C00354B1B6803F00073002BF0D17B681B6A94
:10238C00B3F5803F08D1304B5B6823F400327B6897
:10239C009B682D4913434B602B4B5B6823F47412E1
:1023AC007B68196A7B685B6A0B43274913434B6054
:1023BC00274B01221A60FFF7F3FA386108E0FFF7A8
:1023CC00EFFA02463B69D31A022B01D9032337E0FB
:1023DC001D4B1B6803F00073002BF0D02FE01C4B3F
:1023EC0000221A60FFF7DCFA386108E0FFF7D8FA30
:1023FC0002463B69D31A022B01D9032320E0124B6E
:10240C001B6803F00073002BF0D118E07B68DB69CC
:10241C00012B01D1012313E00B4B5B68FB60FB68C4
:10242C0003F480327B681B6A9A4206D1FB6803F482
:10243C0070127B685B6A9A4201D0012300E0002392
:10244C0018461837BD4680BD001002400070004091
:10245C006000424280B584B000AF786039607B6820
:10246C00002B01D10123D0E06A4B1B6803F007035A
:10247C003A689A4210D9674B1B6823F007026549EA
:10248C003B6813430B60634B1B6803F007033A680C
:10249C009A4201D00123B8E07B681B6803F0020369
:1024AC00002B20D07B681B6803F00403002B05D0A5
:1024BC00594B5B68584A43F4E06353607B681B6874
:1024CC0003F00803002B05D0534B5B68524A43F4CE
:1024DC0060535360504B5B6823F0F0027B689B6841
:1024EC004D4913434B607B681B6803F00103002BC1
:1024FC0040D07B685B68012B07D1474B1B6803F40A
:10250C000033002B15D101237FE07B685B68022B25
:10251C0007D1414B1B6803F00073002B09D1012339
:10252C0073E03D4B1B6803F00203002B01D1012328
:10253C006BE0394B5B6823F003027B685B683649C0
:10254C0013434B60FFF72CFAF8600AE0FFF728FA08
:10255C000246FB68D31A41F28832934201D9032315
:10256C0053E02D4B5B6803F00C027B685B689B00AF
:10257C009A42EBD1274B1B6803F007033A689A4247
:10258C0010D2244B1B6823F0070222493B681343EB
:10259C000B60204B1B6803F007033A689A4201D08A
:1025AC00012332E07B681B6803F00403002B08D086
:1025BC00194B5B6823F4E0627B68DB6816491343B4
:1025CC004B607B681B6803F00803002B09D0124B8F
:1025DC005B6823F460527B681B69DB000E49134374
:1025EC004B6000F021F802460B4B5B681B0903F0B3
:1025FC000F030A49CB5C22FA03F3094A1360094B17
:10260C001B681846FFF78AF9002318461037BD4699
:10261C0080BD00BF0020024000100240782F00084F
:10262C00100000201400002090B48AB000AF2A4B98
:10263C003C1D0FCB84E80F0040F201233B800023AC
:10264C00FB610023BB6100237B6200237B610023C1
:10265C003B62224B5B68FB61FB6903F00C03042BB0
:10266C0002D0082B03D02DE01D4B3B622DE0FB6903
:10267C009B0C03F00F0307F12802134413F8243CBE
:10268C007B61FB6903F48033002B13D0134B5B6825
:10269C005B0C03F0010307F12802134413F8283CE8
:1026AC00BB617B690E4A02FB03F2BB69B2FBF3F31D
:1026BC007B6204E07B690B4A02FB03F37B627B6A5F
:1026CC003B6202E0064B3B6200BF3B6A1846283770
:1026DC00BD4690BC704700BF682F00080010024038
:1026EC0000127A0000093D0080B485B000AF78601C
:1026FC000A4B1B680A4AA2FB03235B0A7A6802FB9B
:10270C0003F3FB6000BFFB685A1EFA60002BF9D183
:10271C0000BF00BF1437BD4680BC704710000020BE
:10272C00D34D621080B582B000AF78607B68002B0F
:10273C0001D1012341E07B6893F83D30DBB2002BE3
:10274C0006D17B68002283F83C207868FFF74EF8AE
:10275C007B68022283F83D207B681A687B6804330F
:10276C001946104600F06AFA7B68012283F846206D
:10277C007B68012283F83E207B68012283F83F208E
:10278C007B68012283F840207B68012283F841207A
:10279C007B68012283F842207B68012283F8432066
:1027AC007B68012283F844207B68012283F8452052
:1027BC007B68012283F83D20002318460837BD466C
:1027CC0080BD000080B485B000AF78607B6893F862
:1027DC003D30DBB2012B01D0012335E07B680222B6
:1027EC0083F83D207B681B68DA687B681B6842F0C5
:1027FC000102DA607B681B68164A934209D07B6839
:10280C001B68B3F1804F04D07B681B68124A93425B
:10281C0011D17B681B689B6803F00703FB60FB68A6
:10282C00062B10D07B681B681A687B681B6842F00B
:10283C0001021A6007E07B681B681A687B681B68DA
:10284C0042F001021A60002318461437BD4680BCC2
:10285C00704700BF002C01400004004080B582B0DE
:10286C0000AF78607B681B681B6903F00203022BC6
:10287C0022D17B681B68DB6803F00203022B1BD19F
:10288C007B681B686FF002021A617B6801221A7761
:10289C007B681B689B6903F00303002B03D07868EB
:1028AC0000F0B1F905E0786800F0A4F9786800F060
:1028BC00B3F97B6800221A777B681B681B6903F0ED
:1028CC000403042B22D17B681B68DB6803F0040330
:1028DC00042B1BD17B681B686FF004021A617B68A8
:1028EC0002221A777B681B689B6903F44073002BE8
:1028FC0003D0786800F087F905E0786800F07AF981
:10290C00786800F089F97B6800221A777B681B686D
:10291C001B6903F00803082B22D17B681B68DB685A
:10292C0003F00803082B1BD17B681B686FF00802AF
:10293C001A617B6804221A777B681B68DB6903F0D9
:10294C000303002B03D0786800F05DF905E078688C
:10295C0000F050F9786800F05FF97B6800221A7774
:10296C007B681B681B6903F01003102B22D17B685A
:10297C001B68DB6803F01003102B1BD17B681B68F2
:10298C006FF010021A617B6808221A777B681B684B
:10299C00DB6903F44073002B03D0786800F033F943
:1029AC0005E0786800F026F9786800F035F97B6866
:1029BC0000221A777B681B681B6903F00103012B4B
:1029CC000ED17B681B68DB6803F00103012B07D178
:1029DC007B681B686FF001021A617868FEF708FECD
:1029EC007B681B681B6903F08003802B0ED17B680E
:1029FC001B68DB6803F08003802B07D17B681B68A6
:102A0C006FF080021A61786800F067FA7B681B68C7
:102A1C001B6903F04003402B0ED17B681B68DB68FD
:102A2C0003F04003402B07D17B681B686FF040021A
:102A3C001A61786800F0F9F87B681B681B6903F071
:102A4C002003202B0ED17B681B68DB6803F020036E
:102A5C00202B07D17B681B686FF020021A61786805
:102A6C0000F032FA00BF0837BD4680BD80B584B097
:102A7C0000AF786039607B6893F83C30012B01D152
:102A8C000223B3E07B68012283F83C207B6802229E
:102A9C0083F83D207B681B689B68FB60FB6823F018
:102AAC007703FB60FB6823F47F43FB607B681B6848
:102ABC00FA689A603B681B68B3F5005F3ED0B3F5CB
:102ACC00005F00F28780B3F5805F00F08580B3F57E
:102ADC00805F7FD8702B1AD0702B7BD8602B50D096
:102AEC00602B77D8502B3CD0502B73D8402B58D020
:102AFC00402B6FD8302B64D0302B6BD8202B60D070
:102B0C00202B67D8002B5CD0102B5AD062E07B684E
:102B1C0018683B6899683B685A683B68DB6800F04A
:102B2C005CF97B681B689B68FB60FB6843F0770370
:102B3C00FB607B681B68FA689A604EE07B681868DB
:102B4C003B6899683B685A683B68DB6800F045F95C
:102B5C007B681B689A687B681B6842F480429A60A9
:102B6C003BE07B6818683B6859683B68DB681A4631
:102B7C0000F0BCF87B681B685021184600F013F974
:102B8C002BE07B6818683B6859683B68DB681A4621
:102B9C0000F0DAF87B681B686021184600F003F936
:102BAC001BE07B6818683B6859683B68DB681A4611
:102BBC0000F09CF87B681B684021184600F0F3F885
:102BCC000BE07B681A683B681B681946104600F0DE
:102BDC00EAF802E000BF00E000BF7B68012283F846
:102BEC003D207B68002283F83C20002318461037D8
:102BFC00BD4680BD80B483B000AF786000BF0C3799
:102C0C00BD4680BC704780B483B000AF786000BF15
:102C1C000C37BD4680BC704780B483B000AF786081
:102C2C0000BF0C37BD4680BC704780B483B000AF8A
:102C3C00786000BF0C37BD4680BC704780B485B04F
:102C4C0000AF786039607B681B68FB607B68254A45
:102C5C00934207D07B68B3F1804F03D07B68224A44
:102C6C00934208D1FB6823F07003FB603B685B6800
:102C7C00FA681343FB607B681A4A934207D07B685F
:102C8C00B3F1804F03D07B68174A934208D1FB689D
:102C9C0023F44073FB603B68DB68FA681343FB600A
:102CAC00FB6823F080023B685B691343FB607B6825
:102CBC00FA681A603B689A687B68DA623B681A6843
:102CCC007B689A627B68074A934203D13B681A6916
:102CDC007B681A637B6801225A6100BF1437BD46BA
:102CEC0080BC7047002C01400004004080B487B0C9
:102CFC0000AFF860B9607A60FB681B6A7B61FB68A7
:102D0C001B6A23F00102FB681A62FB689B693B613A
:102D1C003B6923F0F0033B617B681B013A69134369
:102D2C003B617B6923F00A037B617A69BB681343BF
:102D3C007B61FB683A699A61FB687A691A6200BF29
:102D4C001C37BD4680BC704780B487B000AFF860BC
:102D5C00B9607A60FB681B6A23F01002FB681A6288
:102D6C00FB689B697B61FB681B6A3B617B6923F495
:102D7C0070437B617B681B037A6913437B613B69FE
:102D8C0023F0A0033B61BB681B013A6913433B6111
:102D9C00FB687A699A61FB683A691A6200BF1C3752
:102DAC00BD4680BC704780B485B000AF7860396098
:102DBC007B689B68FB60FB6823F07003FB603A68E0
:102DCC00FB68134343F00703FB607B68FA689A6067
:102DDC0000BF1437BD4680BC704780B487B000AFCD
:102DEC00F860B9607A603B60FB689B687B617B69CB
:102DFC0023F47F437B613B681A027B681A43BB68F0
:102E0C0013437A6913437B61FB687A699A6000BF4C
:102E1C001C37BD4680BC704780B485B000AF78606D
:102E2C0039607B6893F83C30012B01D1022341E0DF
:102E3C007B68012283F83C207B68022283F83D20CA
:102E4C007B681B685B68FB607B681B689B68BB606E
:102E5C00FB6823F07003FB603B681B68FA68134344
:102E6C00FB607B681B68FA685A607B681B68144AB5
:102E7C00934209D07B681B68B3F1804F04D07B6808
:102E8C001B68104A93420CD1BB6823F08003BB60D3
:102E9C003B685B68BA681343BB607B681B68BA68A5
:102EAC009A607B68012283F83D207B68002283F8BE
:102EBC003C20002318461437BD4680BC704700BF29
:102ECC00002C01400004004080B483B000AF786057
:102EDC0000BF0C37BD4680BC704780B483B000AFD8
:102EEC00786000BF0C37BD4680BC704770B50026BB
:102EFC000C4D0D4C641BA410A64209D100F022F815
:102F0C0000260A4D0A4C641BA410A64205D170BDC4
:102F1C0055F8043B98470136EEE755F8043B9847C3
:102F2C000136F2E7882F0008882F0008882F000848
:102F3C008C2F000803460244934200D1704703F8DB
:102F4C00011BF9E7F8B500BFF8BC08BC9E467047FA
:0C2F5C00F8B500BFF8BC08BC9E467047EA
:102F680002030405060708090A0B0C0D0E0F1010C2
:102F78000000000000000000010203040607080921
:042F8800310100080B
:042F8C000D0100082B
:102F90000101010005000000030000000200000024
:0C2FA0000024F4001000000001000000FC
:04000005080018B126
:00000001FF
